{
  "_format": "hh-sol-artifact-1",
  "contractName": "CharityEvent",
  "sourceName": "contracts/CharityEvent.sol",
  "abi": [
    {
      "inputs": [
        {
          "internalType": "address",
          "name": "_committeeAddress",
          "type": "address"
        }
      ],
      "stateMutability": "nonpayable",
      "type": "constructor"
    },
    {
      "anonymous": false,
      "inputs": [
        {
          "indexed": true,
          "internalType": "address",
          "name": "owner",
          "type": "address"
        },
        {
          "indexed": true,
          "internalType": "address",
          "name": "approved",
          "type": "address"
        },
        {
          "indexed": true,
          "internalType": "uint256",
          "name": "tokenId",
          "type": "uint256"
        }
      ],
      "name": "Approval",
      "type": "event"
    },
    {
      "anonymous": false,
      "inputs": [
        {
          "indexed": true,
          "internalType": "address",
          "name": "owner",
          "type": "address"
        },
        {
          "indexed": true,
          "internalType": "address",
          "name": "operator",
          "type": "address"
        },
        {
          "indexed": false,
          "internalType": "bool",
          "name": "approved",
          "type": "bool"
        }
      ],
      "name": "ApprovalForAll",
      "type": "event"
    },
    {
      "anonymous": false,
      "inputs": [
        {
          "indexed": false,
          "internalType": "uint256",
          "name": "_fromTokenId",
          "type": "uint256"
        },
        {
          "indexed": false,
          "internalType": "uint256",
          "name": "_toTokenId",
          "type": "uint256"
        }
      ],
      "name": "BatchMetadataUpdate",
      "type": "event"
    },
    {
      "anonymous": false,
      "inputs": [
        {
          "indexed": false,
          "internalType": "uint256",
          "name": "eventId",
          "type": "uint256"
        },
        {
          "indexed": false,
          "internalType": "uint256",
          "name": "collectedAmount",
          "type": "uint256"
        }
      ],
      "name": "FundraisingCompleted",
      "type": "event"
    },
    {
      "anonymous": false,
      "inputs": [
        {
          "indexed": false,
          "internalType": "uint256",
          "name": "_tokenId",
          "type": "uint256"
        }
      ],
      "name": "MetadataUpdate",
      "type": "event"
    },
    {
      "anonymous": false,
      "inputs": [
        {
          "indexed": false,
          "internalType": "uint256",
          "name": "eventId",
          "type": "uint256"
        },
        {
          "indexed": false,
          "internalType": "uint256",
          "name": "milestoneIndex",
          "type": "uint256"
        },
        {
          "indexed": false,
          "internalType": "string",
          "name": "milestoneName",
          "type": "string"
        },
        {
          "indexed": false,
          "internalType": "string",
          "name": "description",
          "type": "string"
        },
        {
          "indexed": false,
          "internalType": "uint256",
          "name": "targetAmount",
          "type": "uint256"
        },
        {
          "indexed": false,
          "internalType": "uint256",
          "name": "endDate",
          "type": "uint256"
        },
        {
          "indexed": false,
          "internalType": "enum CharityEvent.EventMilestoneStatus",
          "name": "status",
          "type": "uint8"
        }
      ],
      "name": "MilestoneCreated",
      "type": "event"
    },
    {
      "anonymous": false,
      "inputs": [
        {
          "indexed": false,
          "internalType": "uint256",
          "name": "eventId",
          "type": "uint256"
        },
        {
          "indexed": false,
          "internalType": "uint256",
          "name": "milestoneIndex",
          "type": "uint256"
        },
        {
          "indexed": false,
          "internalType": "uint256",
          "name": "spendedAmount",
          "type": "uint256"
        }
      ],
      "name": "MilestoneMarkedAsCompleted",
      "type": "event"
    },
    {
      "anonymous": false,
      "inputs": [
        {
          "indexed": false,
          "internalType": "uint256",
          "name": "eventId",
          "type": "uint256"
        },
        {
          "indexed": false,
          "internalType": "uint256",
          "name": "milestoneIndex",
          "type": "uint256"
        },
        {
          "indexed": false,
          "internalType": "bool",
          "name": "decision",
          "type": "bool"
        },
        {
          "indexed": false,
          "internalType": "bool",
          "name": "_iscomplited",
          "type": "bool"
        }
      ],
      "name": "MilestoneStatusUpdated",
      "type": "event"
    },
    {
      "anonymous": false,
      "inputs": [
        {
          "indexed": false,
          "internalType": "uint256",
          "name": "eventId",
          "type": "uint256"
        },
        {
          "indexed": false,
          "internalType": "address",
          "name": "creator",
          "type": "address"
        },
        {
          "indexed": false,
          "internalType": "string",
          "name": "name",
          "type": "string"
        },
        {
          "indexed": false,
          "internalType": "string",
          "name": "description",
          "type": "string"
        },
        {
          "indexed": false,
          "internalType": "uint256",
          "name": "targetAmount",
          "type": "uint256"
        },
        {
          "indexed": false,
          "internalType": "uint256",
          "name": "collectedAmount",
          "type": "uint256"
        },
        {
          "indexed": false,
          "internalType": "uint256",
          "name": "endDate",
          "type": "uint256"
        },
        {
          "indexed": false,
          "internalType": "enum CharityEvent.EventCategory",
          "name": "category",
          "type": "uint8"
        },
        {
          "indexed": false,
          "internalType": "enum CharityEvent.EventMilestoneStatus",
          "name": "status",
          "type": "uint8"
        },
        {
          "indexed": false,
          "internalType": "uint256",
          "name": "committeeId",
          "type": "uint256"
        },
        {
          "indexed": false,
          "internalType": "bool",
          "name": "isFundraisingOver",
          "type": "bool"
        }
      ],
      "name": "ProposalCreated",
      "type": "event"
    },
    {
      "anonymous": false,
      "inputs": [
        {
          "indexed": false,
          "internalType": "uint256",
          "name": "eventId",
          "type": "uint256"
        },
        {
          "indexed": false,
          "internalType": "enum CharityEvent.EventMilestoneStatus",
          "name": "status",
          "type": "uint8"
        }
      ],
      "name": "ProposalStatusUpdated",
      "type": "event"
    },
    {
      "anonymous": false,
      "inputs": [
        {
          "indexed": true,
          "internalType": "address",
          "name": "from",
          "type": "address"
        },
        {
          "indexed": true,
          "internalType": "address",
          "name": "to",
          "type": "address"
        },
        {
          "indexed": true,
          "internalType": "uint256",
          "name": "tokenId",
          "type": "uint256"
        }
      ],
      "name": "Transfer",
      "type": "event"
    },
    {
      "inputs": [],
      "name": "MILESTONE_COMPLETION_COMMITTEE_SIZE",
      "outputs": [
        {
          "internalType": "uint256",
          "name": "",
          "type": "uint256"
        }
      ],
      "stateMutability": "view",
      "type": "function"
    },
    {
      "inputs": [],
      "name": "PROPOSAL_CONFIRMATION_COMMITTEE_SIZE",
      "outputs": [
        {
          "internalType": "uint256",
          "name": "",
          "type": "uint256"
        }
      ],
      "stateMutability": "view",
      "type": "function"
    },
    {
      "inputs": [
        {
          "internalType": "uint256",
          "name": "",
          "type": "uint256"
        }
      ],
      "name": "_creatorsArray",
      "outputs": [
        {
          "internalType": "address",
          "name": "",
          "type": "address"
        }
      ],
      "stateMutability": "view",
      "type": "function"
    },
    {
      "inputs": [
        {
          "internalType": "address",
          "name": "",
          "type": "address"
        },
        {
          "internalType": "uint256",
          "name": "",
          "type": "uint256"
        }
      ],
      "name": "_creatorsList",
      "outputs": [
        {
          "internalType": "uint256",
          "name": "",
          "type": "uint256"
        }
      ],
      "stateMutability": "view",
      "type": "function"
    },
    {
      "inputs": [
        {
          "internalType": "uint256",
          "name": "",
          "type": "uint256"
        }
      ],
      "name": "_events",
      "outputs": [
        {
          "internalType": "address",
          "name": "creator",
          "type": "address"
        },
        {
          "internalType": "string",
          "name": "name",
          "type": "string"
        },
        {
          "internalType": "string",
          "name": "description",
          "type": "string"
        },
        {
          "internalType": "uint256",
          "name": "targetAmount",
          "type": "uint256"
        },
        {
          "internalType": "uint256",
          "name": "endDate",
          "type": "uint256"
        },
        {
          "internalType": "uint256",
          "name": "collectedAmount",
          "type": "uint256"
        },
        {
          "internalType": "uint256",
          "name": "ratingSum",
          "type": "uint256"
        },
        {
          "internalType": "uint256",
          "name": "ratingCount",
          "type": "uint256"
        },
        {
          "internalType": "enum CharityEvent.EventCategory",
          "name": "category",
          "type": "uint8"
        },
        {
          "internalType": "enum CharityEvent.EventMilestoneStatus",
          "name": "status",
          "type": "uint8"
        },
        {
          "internalType": "uint256",
          "name": "committeeId",
          "type": "uint256"
        },
        {
          "internalType": "bool",
          "name": "isFundraisingOver",
          "type": "bool"
        }
      ],
      "stateMutability": "view",
      "type": "function"
    },
    {
      "inputs": [
        {
          "internalType": "uint256",
          "name": "",
          "type": "uint256"
        }
      ],
      "name": "_eventsMilestones",
      "outputs": [
        {
          "internalType": "address",
          "name": "creator",
          "type": "address"
        },
        {
          "internalType": "string",
          "name": "name",
          "type": "string"
        },
        {
          "internalType": "string",
          "name": "description",
          "type": "string"
        },
        {
          "internalType": "uint256",
          "name": "targetAmount",
          "type": "uint256"
        },
        {
          "internalType": "uint256",
          "name": "endDate",
          "type": "uint256"
        },
        {
          "internalType": "uint256",
          "name": "collectedAmount",
          "type": "uint256"
        },
        {
          "internalType": "uint256",
          "name": "ratingSum",
          "type": "uint256"
        },
        {
          "internalType": "uint256",
          "name": "ratingCount",
          "type": "uint256"
        },
        {
          "internalType": "enum CharityEvent.EventCategory",
          "name": "category",
          "type": "uint8"
        },
        {
          "internalType": "enum CharityEvent.EventMilestoneStatus",
          "name": "status",
          "type": "uint8"
        },
        {
          "internalType": "uint256",
          "name": "committeeId",
          "type": "uint256"
        },
        {
          "internalType": "bool",
          "name": "isFundraisingOver",
          "type": "bool"
        }
      ],
      "stateMutability": "view",
      "type": "function"
    },
    {
      "inputs": [
        {
          "internalType": "uint256",
          "name": "eventId",
          "type": "uint256"
        },
        {
          "internalType": "string",
          "name": "milestoneName",
          "type": "string"
        },
        {
          "internalType": "string",
          "name": "description",
          "type": "string"
        },
        {
          "internalType": "uint256",
          "name": "targetAmount",
          "type": "uint256"
        },
        {
          "internalType": "uint256",
          "name": "endDate",
          "type": "uint256"
        }
      ],
      "name": "addMilestone",
      "outputs": [],
      "stateMutability": "nonpayable",
      "type": "function"
    },
    {
      "inputs": [
        {
          "internalType": "uint256",
          "name": "",
          "type": "uint256"
        }
      ],
      "name": "allEventIds",
      "outputs": [
        {
          "internalType": "uint256",
          "name": "",
          "type": "uint256"
        }
      ],
      "stateMutability": "view",
      "type": "function"
    },
    {
      "inputs": [
        {
          "internalType": "address",
          "name": "to",
          "type": "address"
        },
        {
          "internalType": "uint256",
          "name": "tokenId",
          "type": "uint256"
        }
      ],
      "name": "approve",
      "outputs": [],
      "stateMutability": "nonpayable",
      "type": "function"
    },
    {
      "inputs": [
        {
          "internalType": "address",
          "name": "owner",
          "type": "address"
        }
      ],
      "name": "balanceOf",
      "outputs": [
        {
          "internalType": "uint256",
          "name": "",
          "type": "uint256"
        }
      ],
      "stateMutability": "view",
      "type": "function"
    },
    {
      "inputs": [
        {
          "internalType": "string",
          "name": "tokenUri",
          "type": "string"
        },
        {
          "internalType": "string",
          "name": "name",
          "type": "string"
        },
        {
          "internalType": "string",
          "name": "description",
          "type": "string"
        },
        {
          "internalType": "uint256",
          "name": "targetAmount",
          "type": "uint256"
        },
        {
          "internalType": "uint256",
          "name": "endDate",
          "type": "uint256"
        },
        {
          "internalType": "enum CharityEvent.EventCategory",
          "name": "category",
          "type": "uint8"
        }
      ],
      "name": "createEvent",
      "outputs": [
        {
          "internalType": "uint256",
          "name": "",
          "type": "uint256"
        }
      ],
      "stateMutability": "nonpayable",
      "type": "function"
    },
    {
      "inputs": [
        {
          "internalType": "uint256",
          "name": "tokenId",
          "type": "uint256"
        }
      ],
      "name": "getApproved",
      "outputs": [
        {
          "internalType": "address",
          "name": "",
          "type": "address"
        }
      ],
      "stateMutability": "view",
      "type": "function"
    },
    {
      "inputs": [
        {
          "internalType": "uint256",
          "name": "eventId",
          "type": "uint256"
        }
      ],
      "name": "getEventAverageRating",
      "outputs": [
        {
          "internalType": "uint256",
          "name": "",
          "type": "uint256"
        }
      ],
      "stateMutability": "view",
      "type": "function"
    },
    {
      "inputs": [
        {
          "internalType": "uint256",
          "name": "eventId",
          "type": "uint256"
        }
      ],
      "name": "getEventDetails",
      "outputs": [
        {
          "internalType": "address",
          "name": "creator",
          "type": "address"
        },
        {
          "internalType": "string",
          "name": "name",
          "type": "string"
        },
        {
          "internalType": "string",
          "name": "description",
          "type": "string"
        },
        {
          "internalType": "uint256",
          "name": "targetAmount",
          "type": "uint256"
        },
        {
          "internalType": "uint256",
          "name": "endDate",
          "type": "uint256"
        },
        {
          "internalType": "uint256",
          "name": "collectedAmount",
          "type": "uint256"
        },
        {
          "internalType": "uint256",
          "name": "ratingSum",
          "type": "uint256"
        },
        {
          "internalType": "uint256",
          "name": "ratingCount",
          "type": "uint256"
        },
        {
          "internalType": "enum CharityEvent.EventCategory",
          "name": "category",
          "type": "uint8"
        },
        {
          "internalType": "enum CharityEvent.EventMilestoneStatus",
          "name": "status",
          "type": "uint8"
        },
        {
          "internalType": "uint256",
          "name": "committeeId",
          "type": "uint256"
        }
      ],
      "stateMutability": "view",
      "type": "function"
    },
    {
      "inputs": [
        {
          "internalType": "uint256",
          "name": "eventId",
          "type": "uint256"
        }
      ],
      "name": "getEventFeedbacks",
      "outputs": [
        {
          "components": [
            {
              "internalType": "address",
              "name": "feedbackProvider",
              "type": "address"
            },
            {
              "internalType": "string",
              "name": "feedbackText",
              "type": "string"
            },
            {
              "internalType": "uint256",
              "name": "timestamp",
              "type": "uint256"
            }
          ],
          "internalType": "struct CharityEvent.EventFeedback[]",
          "name": "",
          "type": "tuple[]"
        }
      ],
      "stateMutability": "view",
      "type": "function"
    },
    {
      "inputs": [
        {
          "internalType": "uint256",
          "name": "eventId",
          "type": "uint256"
        }
      ],
      "name": "getMilestonesForEvent",
      "outputs": [
        {
          "components": [
            {
              "internalType": "address",
              "name": "creator",
              "type": "address"
            },
            {
              "internalType": "string",
              "name": "name",
              "type": "string"
            },
            {
              "internalType": "string",
              "name": "description",
              "type": "string"
            },
            {
              "internalType": "uint256",
              "name": "spendedAmount",
              "type": "uint256"
            },
            {
              "internalType": "uint256",
              "name": "targetAmount",
              "type": "uint256"
            },
            {
              "internalType": "uint256",
              "name": "endDate",
              "type": "uint256"
            },
            {
              "internalType": "uint256",
              "name": "ratingSum",
              "type": "uint256"
            },
            {
              "internalType": "uint256",
              "name": "ratingCount",
              "type": "uint256"
            },
            {
              "internalType": "uint256",
              "name": "committeeId",
              "type": "uint256"
            },
            {
              "internalType": "bool",
              "name": "completed",
              "type": "bool"
            },
            {
              "internalType": "bool",
              "name": "isFoundReleased",
              "type": "bool"
            },
            {
              "internalType": "enum CharityEvent.EventMilestoneStatus",
              "name": "status",
              "type": "uint8"
            }
          ],
          "internalType": "struct CharityEvent.Milestone[]",
          "name": "",
          "type": "tuple[]"
        }
      ],
      "stateMutability": "view",
      "type": "function"
    },
    {
      "inputs": [
        {
          "internalType": "address",
          "name": "owner",
          "type": "address"
        },
        {
          "internalType": "address",
          "name": "operator",
          "type": "address"
        }
      ],
      "name": "isApprovedForAll",
      "outputs": [
        {
          "internalType": "bool",
          "name": "",
          "type": "bool"
        }
      ],
      "stateMutability": "view",
      "type": "function"
    },
    {
      "inputs": [
        {
          "internalType": "uint256",
          "name": "eventId",
          "type": "uint256"
        }
      ],
      "name": "isEventActive",
      "outputs": [
        {
          "internalType": "bool",
          "name": "",
          "type": "bool"
        }
      ],
      "stateMutability": "view",
      "type": "function"
    },
    {
      "inputs": [
        {
          "internalType": "uint256",
          "name": "eventId",
          "type": "uint256"
        }
      ],
      "name": "isEventApproved",
      "outputs": [
        {
          "internalType": "bool",
          "name": "",
          "type": "bool"
        }
      ],
      "stateMutability": "view",
      "type": "function"
    },
    {
      "inputs": [
        {
          "internalType": "uint256",
          "name": "eventId",
          "type": "uint256"
        }
      ],
      "name": "isEventFundraisingOver",
      "outputs": [
        {
          "internalType": "bool",
          "name": "",
          "type": "bool"
        }
      ],
      "stateMutability": "view",
      "type": "function"
    },
    {
      "inputs": [],
      "name": "listAllEvents",
      "outputs": [
        {
          "internalType": "uint256[]",
          "name": "",
          "type": "uint256[]"
        }
      ],
      "stateMutability": "view",
      "type": "function"
    },
    {
      "inputs": [
        {
          "internalType": "uint256",
          "name": "eventId",
          "type": "uint256"
        },
        {
          "internalType": "uint256",
          "name": "milestoneIndex",
          "type": "uint256"
        },
        {
          "internalType": "uint256",
          "name": "spendedAmount",
          "type": "uint256"
        }
      ],
      "name": "markMilestoneAsCompleted",
      "outputs": [],
      "stateMutability": "nonpayable",
      "type": "function"
    },
    {
      "inputs": [],
      "name": "name",
      "outputs": [
        {
          "internalType": "string",
          "name": "",
          "type": "string"
        }
      ],
      "stateMutability": "view",
      "type": "function"
    },
    {
      "inputs": [
        {
          "internalType": "uint256",
          "name": "tokenId",
          "type": "uint256"
        }
      ],
      "name": "ownerOf",
      "outputs": [
        {
          "internalType": "address",
          "name": "",
          "type": "address"
        }
      ],
      "stateMutability": "view",
      "type": "function"
    },
    {
      "inputs": [
        {
          "internalType": "uint256",
          "name": "eventId",
          "type": "uint256"
        }
      ],
      "name": "possibleMilestoneAmount",
      "outputs": [
        {
          "internalType": "uint256",
          "name": "milestoneIndex",
          "type": "uint256"
        },
        {
          "internalType": "uint256",
          "name": "amount",
          "type": "uint256"
        }
      ],
      "stateMutability": "view",
      "type": "function"
    },
    {
      "inputs": [
        {
          "internalType": "uint256",
          "name": "eventId",
          "type": "uint256"
        },
        {
          "internalType": "string",
          "name": "feedbackText",
          "type": "string"
        }
      ],
      "name": "provideEventFeedback",
      "outputs": [],
      "stateMutability": "nonpayable",
      "type": "function"
    },
    {
      "inputs": [
        {
          "internalType": "uint256",
          "name": "eventId",
          "type": "uint256"
        },
        {
          "internalType": "uint256",
          "name": "rating",
          "type": "uint256"
        }
      ],
      "name": "rateEvent",
      "outputs": [],
      "stateMutability": "nonpayable",
      "type": "function"
    },
    {
      "inputs": [
        {
          "internalType": "uint256",
          "name": "eventId",
          "type": "uint256"
        }
      ],
      "name": "retrieveEventCreator",
      "outputs": [
        {
          "internalType": "address",
          "name": "",
          "type": "address"
        }
      ],
      "stateMutability": "view",
      "type": "function"
    },
    {
      "inputs": [
        {
          "internalType": "address",
          "name": "from",
          "type": "address"
        },
        {
          "internalType": "address",
          "name": "to",
          "type": "address"
        },
        {
          "internalType": "uint256",
          "name": "tokenId",
          "type": "uint256"
        }
      ],
      "name": "safeTransferFrom",
      "outputs": [],
      "stateMutability": "nonpayable",
      "type": "function"
    },
    {
      "inputs": [
        {
          "internalType": "address",
          "name": "from",
          "type": "address"
        },
        {
          "internalType": "address",
          "name": "to",
          "type": "address"
        },
        {
          "internalType": "uint256",
          "name": "tokenId",
          "type": "uint256"
        },
        {
          "internalType": "bytes",
          "name": "data",
          "type": "bytes"
        }
      ],
      "name": "safeTransferFrom",
      "outputs": [],
      "stateMutability": "nonpayable",
      "type": "function"
    },
    {
      "inputs": [
        {
          "internalType": "address",
          "name": "operator",
          "type": "address"
        },
        {
          "internalType": "bool",
          "name": "approved",
          "type": "bool"
        }
      ],
      "name": "setApprovalForAll",
      "outputs": [],
      "stateMutability": "nonpayable",
      "type": "function"
    },
    {
      "inputs": [
        {
          "internalType": "bytes4",
          "name": "interfaceId",
          "type": "bytes4"
        }
      ],
      "name": "supportsInterface",
      "outputs": [
        {
          "internalType": "bool",
          "name": "",
          "type": "bool"
        }
      ],
      "stateMutability": "view",
      "type": "function"
    },
    {
      "inputs": [],
      "name": "symbol",
      "outputs": [
        {
          "internalType": "string",
          "name": "",
          "type": "string"
        }
      ],
      "stateMutability": "view",
      "type": "function"
    },
    {
      "inputs": [
        {
          "internalType": "uint256",
          "name": "tokenId",
          "type": "uint256"
        }
      ],
      "name": "tokenURI",
      "outputs": [
        {
          "internalType": "string",
          "name": "",
          "type": "string"
        }
      ],
      "stateMutability": "view",
      "type": "function"
    },
    {
      "inputs": [
        {
          "internalType": "address",
          "name": "from",
          "type": "address"
        },
        {
          "internalType": "address",
          "name": "to",
          "type": "address"
        },
        {
          "internalType": "uint256",
          "name": "tokenId",
          "type": "uint256"
        }
      ],
      "name": "transferFrom",
      "outputs": [],
      "stateMutability": "nonpayable",
      "type": "function"
    },
    {
      "inputs": [
        {
          "internalType": "uint256",
          "name": "eventId",
          "type": "uint256"
        },
        {
          "internalType": "uint256",
          "name": "collectedAmount",
          "type": "uint256"
        }
      ],
      "name": "updateCollectedAmount",
      "outputs": [],
      "stateMutability": "nonpayable",
      "type": "function"
    },
    {
      "inputs": [
        {
          "internalType": "uint256",
          "name": "_eventId",
          "type": "uint256"
        },
        {
          "internalType": "bool",
          "name": "decision",
          "type": "bool"
        }
      ],
      "name": "updateEventCommitteeStatus",
      "outputs": [],
      "stateMutability": "nonpayable",
      "type": "function"
    },
    {
      "inputs": [
        {
          "internalType": "uint256",
          "name": "_eventId",
          "type": "uint256"
        },
        {
          "internalType": "uint256",
          "name": "milestoneIndex",
          "type": "uint256"
        },
        {
          "internalType": "bool",
          "name": "decision",
          "type": "bool"
        },
        {
          "internalType": "bool",
          "name": "_isComplited",
          "type": "bool"
        }
      ],
      "name": "updateMilestoneCommitteeStatus",
      "outputs": [],
      "stateMutability": "nonpayable",
      "type": "function"
    }
  ],
  "bytecode": "0x60806040523480156200001157600080fd5b50604051620039793803806200397983398101604081905262000034916200016a565b604080518082018252600c81526b10da185c9a5d1e515d995b9d60a21b60208083019182528351808501909452600484526310d1559560e21b9084015281519192916200008491600091620000c4565b5080516200009a906001906020840190620000c4565b5050600780546001600160a01b0319166001600160a01b03939093169290921790915550620001d7565b828054620000d2906200019a565b90600052602060002090601f016020900481019282620000f6576000855562000141565b82601f106200011157805160ff191683800117855562000141565b8280016001018555821562000141579182015b828111156200014157825182559160200191906001019062000124565b506200014f92915062000153565b5090565b5b808211156200014f576000815560010162000154565b6000602082840312156200017c578081fd5b81516001600160a01b038116811462000193578182fd5b9392505050565b600181811c90821680620001af57607f821691505b60208210811415620001d157634e487b7160e01b600052602260045260246000fd5b50919050565b61379280620001e76000396000f3fe608060405234801561001057600080fd5b50600436106102325760003560e01c8063a22cb46511610130578063d0ed06a1116100b8578063f040d0f21161007c578063f040d0f214610582578063f289259f14610595578063f2ed1fe4146105be578063f803ca6c146105d1578063fe2f350c1461046957600080fd5b8063d0ed06a1146104d0578063d60fe87d146104e3578063d86ac8d714610509578063e985e9c51461051c578063ec38d5a01461055857600080fd5b8063bb4db7d0116100ff578063bb4db7d014610469578063c32c2e0b14610471578063c87b56dd14610497578063ccd9abf9146104aa578063ce5d6b43146104bd57600080fd5b8063a22cb46514610410578063b2b8577714610423578063b412f4bf14610436578063b88d4fde1461045657600080fd5b806342f71b24116101be5780637485644d116101825780637485644d146103975780638458762d146103c25780638702e29f146103d557806395d89b41146103e85780639fb8ddc1146103f057600080fd5b806342f71b2414610315578063563700d51461033d5780635e36bc27146103505780636352211e1461037157806370a082311461038457600080fd5b8063114af74c11610205578063114af74c146102b457806318bed395146102c957806323b872dd146102dc5780632c5d97fc146102ef57806342842e0e1461030257600080fd5b806301ffc9a71461023757806306fdde031461025f578063081812fc14610274578063095ea7b31461029f575b600080fd5b61024a610245366004612dd2565b6105e4565b60405190151581526020015b60405180910390f35b6102676105f5565b6040516102569190613415565b610287610282366004612eb8565b610687565b6040516001600160a01b039091168152602001610256565b6102b26102ad366004612da9565b6106ae565b005b6102bc6107c9565b60405161025691906133d1565b6102b26102d7366004612fcb565b610820565b6102b26102ea366004612ccc565b6108ca565b6102b26102fd366004613031565b6108fb565b6102b2610310366004612ccc565b610c36565b610328610323366004612eb8565b610c51565b60408051928352602083019190915201610256565b6102b261034b366004612f4f565b610eb8565b61036361035e366004612da9565b611131565b604051908152602001610256565b61028761037f366004612eb8565b611162565b610363610392366004612c80565b6111c2565b6103aa6103a5366004612eb8565b611248565b6040516102569c9b9a999897969594939291906131b5565b6102b26103d0366004612fec565b6113c8565b6103636103e3366004612e0a565b611551565b610267611827565b6104036103fe366004612eb8565b611836565b604051610256919061324c565b6102b261041e366004612d80565b61195a565b610363610431366004612eb8565b611969565b610449610444366004612eb8565b6119aa565b60405161025691906132d7565b6102b2610464366004612d07565b611bfa565b610363600381565b61024a61047f366004612eb8565b6000908152600c602052604090206004015442111590565b6102676104a5366004612eb8565b611c32565b6102876104b8366004612eb8565b611c3d565b6102b26104cb366004612ee8565b611c67565b6103636104de366004612eb8565b611d0c565b61024a6104f1366004612eb8565b6000908152600c60205260409020600d015460ff1690565b6102b2610517366004612fcb565b611d2d565b61024a61052a366004612c9a565b6001600160a01b03918216600090815260056020908152604080832093909416825291909152205460ff1690565b61056b610566366004612eb8565b611dc9565b6040516102569b9a99989796959493929190613128565b6103aa610590366004612eb8565b611f77565b6102876105a3366004612eb8565b6000908152600c60205260409020546001600160a01b031690565b61024a6105cc366004612eb8565b611fa3565b6102b26105df366004612f0a565b612019565b60006105ef8261209e565b92915050565b606060008054610604906136ae565b80601f0160208091040260200160405190810160405280929190818152602001828054610630906136ae565b801561067d5780601f106106525761010080835404028352916020019161067d565b820191906000526020600020905b81548152906001019060200180831161066057829003601f168201915b5050505050905090565b6000610692826120c3565b506000908152600460205260409020546001600160a01b031690565b60006106b982611162565b9050806001600160a01b0316836001600160a01b0316141561072c5760405162461bcd60e51b815260206004820152602160248201527f4552433732313a20617070726f76616c20746f2063757272656e74206f776e656044820152603960f91b60648201526084015b60405180910390fd5b336001600160a01b03821614806107485750610748813361052a565b6107ba5760405162461bcd60e51b815260206004820152603d60248201527f4552433732313a20617070726f76652063616c6c6572206973206e6f7420746f60448201527f6b656e206f776e6572206f7220617070726f76656420666f7220616c6c0000006064820152608401610723565b6107c48383612125565b505050565b6060600a80548060200260200160405190810160405280929190818152602001828054801561067d57602002820191906000526020600020905b815481526020019060010190808311610803575050505050905090565b60018110158015610832575060058111155b61087e5760405162461bcd60e51b815260206004820181905260248201527f526174696e672073686f756c64206265206265747765656e203120616e6420356044820152606401610723565b6000828152600c60205260408120600701805483929061089f908490613633565b90915550506000828152600c602052604081206008018054916108c1836136e9565b91905055505050565b6108d43382612193565b6108f05760405162461bcd60e51b815260040161072390613428565b6107c4838383612212565b6000838152600c60205260409020546001600160a01b031633146109955760405162461bcd60e51b815260206004820152604560248201527f4f6e6c7920746865206576656e742063726561746f72206f722076616c69646160448201527f746f72732063616e206d61726b206d696c6573746f6e657320617320636f6d706064820152641b195d195960da1b608482015260a401610723565b6000838152600c602052604090206006015482106109f55760405162461bcd60e51b815260206004820152601760248201527f496e76616c6964206d696c6573746f6e6520696e6465780000000000000000006044820152606401610723565b6000838152600c6020526040902060060180546001919084908110610a2a57634e487b7160e01b600052603260045260246000fd5b90600052602060002090600a020160090160006101000a81548160ff02191690831515021790555080600c60008581526020019081526020016000206006018381548110610a8857634e487b7160e01b600052603260045260246000fd5b6000918252602082206003600a909202018101929092556007546040516387a0568960e01b815291926001600160a01b03909116916387a0568991610ad691889088906001906004016135af565b602060405180830381600087803b158015610af057600080fd5b505af1158015610b04573d6000803e3d6000fd5b505050506040513d601f19601f82011682018060405250810190610b289190612ed0565b6000858152600c602052604090206006018054919250829185908110610b5e57634e487b7160e01b600052603260045260246000fd5b90600052602060002090600a0201600801819055506000600c60008681526020019081526020016000206006018481548110610baa57634e487b7160e01b600052603260045260246000fd5b600091825260209091206009600a9092020101805462ff0000191662010000836003811115610be957634e487b7160e01b600052602160045260246000fd5b021790555060408051858152602081018590529081018390527fe465a2cdbb94b3d44c5c3c737ce1a27c31d443b7d381ea297ceee33224ee04ef906060015b60405180910390a150505050565b6107c483838360405180602001604052806000815250611bfa565b60008060016000848152600c60205260409020600b0154610100900460ff166003811115610c8f57634e487b7160e01b600052602160045260246000fd5b14610cd25760405162461bcd60e51b815260206004820152601360248201527222bb32b73a103737ba1030b8383937bb32b21760691b6044820152606401610723565b6000838152600c60205260408120600601549092505b80831015610eb2576000848152600c60205260409020600601805484908110610d2157634e487b7160e01b600052603260045260246000fd5b60009182526020909120600a9091020160090154610100900460ff16610ea05782610d91576000848152600c60205260409020600601805484908110610d7757634e487b7160e01b600052603260045260246000fd5b90600052602060002090600a020160040154915050915091565b6000848152600c60205260409020600601610dad60018561366b565b81548110610dcb57634e487b7160e01b600052603260045260246000fd5b600091825260209091206009600a90920201015460ff1615156001148015610e6a575060016000858152600c60205260409020600601610e0c60018661366b565b81548110610e2a57634e487b7160e01b600052603260045260246000fd5b90600052602060002090600a020160090160029054906101000a900460ff166003811115610e6857634e487b7160e01b600052602160045260246000fd5b145b15610ea0576000848152600c60205260409020600601805484908110610d7757634e487b7160e01b600052603260045260246000fd5b82610eaa816136e9565b935050610ce8565b50915091565b6000858152600c60205260409020546001600160a01b03163314610f305760405162461bcd60e51b815260206004820152602960248201527f4f6e6c7920746865206576656e742063726561746f722063616e20616464206d604482015268696c6573746f6e657360b81b6064820152608401610723565b6000604051806101800160405280336001600160a01b0316815260200186815260200185815260200160008152602001848152602001838152602001600081526020016000815260200160008152602001600015158152602001600015158152602001600380811115610fb357634e487b7160e01b600052602160045260246000fd5b90526000878152600c602090815260408220600601805460018082018355918452928290208451600a850290910180546001600160a01b0319166001600160a01b0390921691909117815584830151805195965093948694919361101b938501920190612b2b565b5060408201518051611037916002840191602090910190612b2b565b5060608201516003828101919091556080830151600483015560a0830151600583015560c0830151600683015560e0830151600783015561010080840151600884015561012084015160098401805461014087015161ffff1990911692151561ff00191692909217911515909202178082556101608501519262ff00001990911690620100009084908111156110dd57634e487b7160e01b600052602160045260246000fd5b021790555050507fde27b21ff759b0868a9c74d72ce39f4b41284d3309a6c3c87961f62deb016ab2878288888888600360405161112097969594939291906135da565b60405180910390a150505050505050565b600e602052816000526040600020818154811061114d57600080fd5b90600052602060002001600091509150505481565b6000818152600260205260408120546001600160a01b0316806105ef5760405162461bcd60e51b8152602060048201526018602482015277115490cdcc8c4e881a5b9d985b1a59081d1bdad95b88125160421b6044820152606401610723565b60006001600160a01b03821661122c5760405162461bcd60e51b815260206004820152602960248201527f4552433732313a2061646472657373207a65726f206973206e6f7420612076616044820152683634b21037bbb732b960b91b6064820152608401610723565b506001600160a01b031660009081526003602052604090205490565b600d60205260009081526040902080546001820180546001600160a01b039092169291611274906136ae565b80601f01602080910402602001604051908101604052809291908181526020018280546112a0906136ae565b80156112ed5780601f106112c2576101008083540402835291602001916112ed565b820191906000526020600020905b8154815290600101906020018083116112d057829003601f168201915b505050505090806002018054611302906136ae565b80601f016020809104026020016040519081016040528092919081815260200182805461132e906136ae565b801561137b5780601f106113505761010080835404028352916020019161137b565b820191906000526020600020905b81548152906001019060200180831161135e57829003601f168201915b50505060038401546004850154600586015460078701546008880154600b890154600c8a0154600d909a0154989995989497509295509093909260ff80841693610100900481169291168c565b60018115151415611491576001821515141561145c576000848152600c602052604090206006018054600191908590811061141357634e487b7160e01b600052603260045260246000fd5b600091825260209091206009600a9092020101805462ff000019166201000083600381111561145257634e487b7160e01b600052602160045260246000fd5b0217905550611507565b6000848152600c602052604090206006018054600291908590811061141357634e487b7160e01b600052603260045260246000fd5b6000848152600c602052604081206006018054859081106114c257634e487b7160e01b600052603260045260246000fd5b600091825260209091206009600a9092020101805462ff000019166201000083600381111561150157634e487b7160e01b600052602160045260246000fd5b02179055505b60408051858152602081018590528315159181019190915281151560608201527f185be6e64af5b5c7d37a9ad49da0ddb4e154526ebe983ee3e01fa12fb96d12e290608001610c28565b6000611561600880546001019055565b600061156c60085490565b6007546040516387a0568960e01b81529192506000916001600160a01b03909116906387a05689906115a9906003908690869081906004016135af565b602060405180830381600087803b1580156115c357600080fd5b505af11580156115d7573d6000803e3d6000fd5b505050506040513d601f19601f820116820180604052508101906115fb9190612ed0565b90506116073383612376565b611611828a612501565b6000828152600c6020908152604090912080546001600160a01b031916331781558951611646926001909201918b0190612b2b565b506000828152600c60209081526040909120885161166c926002909201918a0190612b2b565b506000828152600c6020526040812060038101889055600481018790556005808201839055600782018390556008820192909255600b018054869260ff199091169060019084908111156116d057634e487b7160e01b600052602160045260246000fd5b02179055506000828152600c60208181526040808420600b8101805461ff0019169055928301859055600d909201805460ff19169055600a8054600181019091557fc65a7bb8d6351c1cf70c95a316cc6a92839c986682d98bc35f958f4883f9d2a801859055338352600e9052902054156117aa57600b805460018181019092557f0175b7a638427703f0dbe7bb9bbf987a2551717b34e79f33b5b1008d1fa01db90180546001600160a01b031916339081179091556000908152600e6020908152604082208054938401815582529020018290556117cd565b336000908152600e60209081526040822080546001810182559083529120018290555b7f42b424aabead7f1f797b1696d3f25c50f3094b7664ded74ff4779841c1bfe7ac82338a8a8a60008b8b60008a60006040516118139b9a9998979695949392919061350c565b60405180910390a150979650505050505050565b606060018054610604906136ae565b6060600f6000838152602001908152602001600020805480602002602001604051908101604052809291908181526020016000905b8282101561194f57600084815260209081902060408051606081019091526003850290910180546001600160a01b0316825260018101805492939192918401916118b4906136ae565b80601f01602080910402602001604051908101604052809291908181526020018280546118e0906136ae565b801561192d5780601f106119025761010080835404028352916020019161192d565b820191906000526020600020905b81548152906001019060200180831161191057829003601f168201915b505050505081526020016002820154815250508152602001906001019061186b565b505050509050919050565b6119653383836125cc565b5050565b6000818152600c602052604081206008015461198757506000919050565b6000828152600c6020526040902060088101546007909101546105ef919061364b565b6060600c6000838152602001908152602001600020600601805480602002602001604051908101604052809291908181526020016000905b8282101561194f576000848152602090819020604080516101808101909152600a850290910180546001600160a01b031682526001810180549293919291840191611a2c906136ae565b80601f0160208091040260200160405190810160405280929190818152602001828054611a58906136ae565b8015611aa55780601f10611a7a57610100808354040283529160200191611aa5565b820191906000526020600020905b815481529060010190602001808311611a8857829003601f168201915b50505050508152602001600282018054611abe906136ae565b80601f0160208091040260200160405190810160405280929190818152602001828054611aea906136ae565b8015611b375780601f10611b0c57610100808354040283529160200191611b37565b820191906000526020600020905b815481529060010190602001808311611b1a57829003601f168201915b50505091835250506003828101546020830152600483015460408301526005830154606083015260068301546080830152600783015460a0830152600883015460c0830152600983015460ff808216151560e0850152610100808304821615159085015261012090930192620100009091041690811115611bc857634e487b7160e01b600052602160045260246000fd5b6003811115611be757634e487b7160e01b600052602160045260246000fd5b81525050815260200190600101906119e2565b611c043383612193565b611c205760405162461bcd60e51b815260040161072390613428565b611c2c8484848461269b565b50505050565b60606105ef826126ce565b600b8181548110611c4d57600080fd5b6000918252602090912001546001600160a01b0316905081565b60018115151415611c95576000828152600c60205260409020600b01805461ff001916610100179055611cb4565b6000828152600c60205260409020600b01805461ff0019166102001790555b6000828152600c602052604090819020600b015490517f3646af1e723ad3312b3882e1313a9a027ac60be336dd8582ed727e1dd4cf9e7891611d00918591610100900460ff169061359b565b60405180910390a15050565b600a8181548110611d1c57600080fd5b600091825260209091200154905081565b6000828152600c602052604081206005018054839290611d4e908490613633565b90915550506000828152600c6020526040902060038101546005909101541115611965576000828152600c602052604090819020600d01805460ff19166001179055517fe4dc16964c311ed7145db4c608966113583fadb91a939bc8037d1b05bf62b83790611d009084908490918252602082015260400190565b6000818152600c602081905260408220805460038201546004830154600584015460078501546008860154600b8701549787015460018801805460609a8b9a8d9a8b9a8b9a8b9a8b9a8b9a8b9a8b9a97996001600160a01b039097169860028b019760ff808316936101009093041691908a90611e45906136ae565b80601f0160208091040260200160405190810160405280929190818152602001828054611e71906136ae565b8015611ebe5780601f10611e9357610100808354040283529160200191611ebe565b820191906000526020600020905b815481529060010190602001808311611ea157829003601f168201915b50505050509950888054611ed1906136ae565b80601f0160208091040260200160405190810160405280929190818152602001828054611efd906136ae565b8015611f4a5780601f10611f1f57610100808354040283529160200191611f4a565b820191906000526020600020905b815481529060010190602001808311611f2d57829003601f168201915b505050505098509b509b509b509b509b509b509b509b509b509b509b505091939597999b90929496989a50565b600c60205260009081526040902080546001820180546001600160a01b039092169291611274906136ae565b600060016000838152600c60205260409020600b0154610100900460ff166003811115611fe057634e487b7160e01b600052602160045260246000fd5b148015611fff57506000828152600c60205260409020600d015460ff16155b1561200c57506001919050565b506000919050565b919050565b60408051606081018252338152602080820184815242838501526000868152600f835293842080546001808201835591865294839020845160039096020180546001600160a01b0319166001600160a01b039096169590951785559051805193948594909361208c938501920190612b2b565b50604082015181600201555050505050565b60006001600160e01b03198216632483248360e11b14806105ef57506105ef826127d7565b6000818152600260205260409020546001600160a01b03166121225760405162461bcd60e51b8152602060048201526018602482015277115490cdcc8c4e881a5b9d985b1a59081d1bdad95b88125160421b6044820152606401610723565b50565b600081815260046020526040902080546001600160a01b0319166001600160a01b038416908117909155819061215a82611162565b6001600160a01b03167f8c5be1e5ebec7d5bd14f71427d1e84f3dd0314c0f7b2291e5b200ac8c7c3b92560405160405180910390a45050565b60008061219f83611162565b9050806001600160a01b0316846001600160a01b031614806121e657506001600160a01b0380821660009081526005602090815260408083209388168352929052205460ff165b8061220a5750836001600160a01b03166121ff84610687565b6001600160a01b0316145b949350505050565b826001600160a01b031661222582611162565b6001600160a01b03161461224b5760405162461bcd60e51b8152600401610723906134c7565b6001600160a01b0382166122ad5760405162461bcd60e51b8152602060048201526024808201527f4552433732313a207472616e7366657220746f20746865207a65726f206164646044820152637265737360e01b6064820152608401610723565b826001600160a01b03166122c082611162565b6001600160a01b0316146122e65760405162461bcd60e51b8152600401610723906134c7565b600081815260046020908152604080832080546001600160a01b03199081169091556001600160a01b0387811680865260038552838620805460001901905590871680865283862080546001019055868652600290945282852080549092168417909155905184937fddf252ad1be2c89b69c2b068fc378daa952ba7f163c4a11628f55a4df523b3ef91a4505050565b6001600160a01b0382166123cc5760405162461bcd60e51b815260206004820181905260248201527f4552433732313a206d696e7420746f20746865207a65726f20616464726573736044820152606401610723565b6000818152600260205260409020546001600160a01b0316156124315760405162461bcd60e51b815260206004820152601c60248201527f4552433732313a20746f6b656e20616c7265616479206d696e746564000000006044820152606401610723565b6000818152600260205260409020546001600160a01b0316156124965760405162461bcd60e51b815260206004820152601c60248201527f4552433732313a20746f6b656e20616c7265616479206d696e746564000000006044820152606401610723565b6001600160a01b038216600081815260036020908152604080832080546001019055848352600290915280822080546001600160a01b0319168417905551839291907fddf252ad1be2c89b69c2b068fc378daa952ba7f163c4a11628f55a4df523b3ef908290a45050565b6000828152600260205260409020546001600160a01b031661257c5760405162461bcd60e51b815260206004820152602e60248201527f45524337323155524953746f726167653a2055524920736574206f66206e6f6e60448201526d32bc34b9ba32b73a103a37b5b2b760911b6064820152608401610723565b6000828152600660209081526040909120825161259b92840190612b2b565b506040518281527ff8e1a15aba9398e019f0b49df1a4fde98ee17ae345cb5f6b5e2c27f5033e8ce790602001611d00565b816001600160a01b0316836001600160a01b0316141561262e5760405162461bcd60e51b815260206004820152601960248201527f4552433732313a20617070726f766520746f2063616c6c6572000000000000006044820152606401610723565b6001600160a01b03838116600081815260056020908152604080832094871680845294825291829020805460ff191686151590811790915591519182527f17307eab39ab6107e8899845ad3d59bd9653f200f220920489ca2b5937696c31910160405180910390a3505050565b6126a6848484612212565b6126b284848484612827565b611c2c5760405162461bcd60e51b815260040161072390613475565b60606126d9826120c3565b600082815260066020526040812080546126f2906136ae565b80601f016020809104026020016040519081016040528092919081815260200182805461271e906136ae565b801561276b5780601f106127405761010080835404028352916020019161276b565b820191906000526020600020905b81548152906001019060200180831161274e57829003601f168201915b50505050509050600061278960408051602081019091526000815290565b905080516000141561279c575092915050565b8151156127ce5780826040516020016127b69291906130bc565b60405160208183030381529060405292505050919050565b61220a84612934565b60006001600160e01b031982166380ac58cd60e01b148061280857506001600160e01b03198216635b5e139f60e01b145b806105ef57506301ffc9a760e01b6001600160e01b03198316146105ef565b60006001600160a01b0384163b1561292957604051630a85bd0160e11b81526001600160a01b0385169063150b7a029061286b9033908990889088906004016130eb565b602060405180830381600087803b15801561288557600080fd5b505af19250505080156128b5575060408051601f3d908101601f191682019092526128b291810190612dee565b60015b61290f573d8080156128e3576040519150601f19603f3d011682016040523d82523d6000602084013e6128e8565b606091505b5080516129075760405162461bcd60e51b815260040161072390613475565b805181602001fd5b6001600160e01b031916630a85bd0160e11b14905061220a565b506001949350505050565b606061293f826120c3565b600061295660408051602081019091526000815290565b9050600081511161297657604051806020016040528060008152506129a1565b80612980846129a8565b6040516020016129919291906130bc565b6040516020818303038152906040525b9392505050565b606060006129b583612a53565b600101905060008167ffffffffffffffff8111156129e357634e487b7160e01b600052604160045260246000fd5b6040519080825280601f01601f191660200182016040528015612a0d576020820181803683370190505b5090508181016020015b600019016f181899199a1a9b1b9c1cb0b131b232b360811b600a86061a8153600a8504945084612a4657612a4b565b612a17565b509392505050565b60008072184f03e93ff9f4daa797ed6e38ed64bf6a1f0160401b8310612a925772184f03e93ff9f4daa797ed6e38ed64bf6a1f0160401b830492506040015b6d04ee2d6d415b85acef81000000008310612abe576d04ee2d6d415b85acef8100000000830492506020015b662386f26fc100008310612adc57662386f26fc10000830492506010015b6305f5e1008310612af4576305f5e100830492506008015b6127108310612b0857612710830492506004015b60648310612b1a576064830492506002015b600a83106105ef5760010192915050565b828054612b37906136ae565b90600052602060002090601f016020900481019282612b595760008555612b9f565b82601f10612b7257805160ff1916838001178555612b9f565b82800160010185558215612b9f579182015b82811115612b9f578251825591602001919060010190612b84565b50612bab929150612baf565b5090565b5b80821115612bab5760008155600101612bb0565b600067ffffffffffffffff80841115612bdf57612bdf613730565b604051601f8501601f19908116603f01168101908282118183101715612c0757612c07613730565b81604052809350858152868686011115612c2057600080fd5b858560208301376000602087830101525050509392505050565b80356001600160a01b038116811461201457600080fd5b8035801515811461201457600080fd5b600082601f830112612c71578081fd5b6129a183833560208501612bc4565b600060208284031215612c91578081fd5b6129a182612c3a565b60008060408385031215612cac578081fd5b612cb583612c3a565b9150612cc360208401612c3a565b90509250929050565b600080600060608486031215612ce0578081fd5b612ce984612c3a565b9250612cf760208501612c3a565b9150604084013590509250925092565b60008060008060808587031215612d1c578081fd5b612d2585612c3a565b9350612d3360208601612c3a565b925060408501359150606085013567ffffffffffffffff811115612d55578182fd5b8501601f81018713612d65578182fd5b612d7487823560208401612bc4565b91505092959194509250565b60008060408385031215612d92578182fd5b612d9b83612c3a565b9150612cc360208401612c51565b60008060408385031215612dbb578182fd5b612dc483612c3a565b946020939093013593505050565b600060208284031215612de3578081fd5b81356129a181613746565b600060208284031215612dff578081fd5b81516129a181613746565b60008060008060008060c08789031215612e22578182fd5b863567ffffffffffffffff80821115612e39578384fd5b612e458a838b01612c61565b97506020890135915080821115612e5a578384fd5b612e668a838b01612c61565b96506040890135915080821115612e7b578384fd5b50612e8889828a01612c61565b945050606087013592506080870135915060a087013560068110612eaa578182fd5b809150509295509295509295565b600060208284031215612ec9578081fd5b5035919050565b600060208284031215612ee1578081fd5b5051919050565b60008060408385031215612efa578182fd5b82359150612cc360208401612c51565b60008060408385031215612f1c578182fd5b82359150602083013567ffffffffffffffff811115612f39578182fd5b612f4585828601612c61565b9150509250929050565b600080600080600060a08688031215612f66578283fd5b85359450602086013567ffffffffffffffff80821115612f84578485fd5b612f9089838a01612c61565b95506040880135915080821115612fa5578485fd5b50612fb288828901612c61565b9598949750949560608101359550608001359392505050565b60008060408385031215612fdd578182fd5b50508035926020909101359150565b60008060008060808587031215613001578182fd5b843593506020850135925061301860408601612c51565b915061302660608601612c51565b905092959194509250565b600080600060608486031215613045578081fd5b505081359360208301359350604090920135919050565b60008151808452613074816020860160208601613682565b601f01601f19169290920160200192915050565b600381106130985761309861371a565b9052565b600681106130985761309861371a565b600481106130985761309861371a565b600083516130ce818460208801613682565b8351908301906130e2818360208801613682565b01949350505050565b6001600160a01b038581168252841660208201526040810183905260806060820181905260009061311e9083018461305c565b9695505050505050565b6001600160a01b038c1681526101606020820181905260009061314d8382018e61305c565b90508281036040840152613161818d61305c565b9150508960608301528860808301528760a08301528660c08301528560e083015261319061010083018661309c565b61319e6101208301856130ac565b826101408301529c9b505050505050505050505050565b6001600160a01b038d168152610180602082018190526000906131da8382018f61305c565b905082810360408401526131ee818e61305c565b9150508a60608301528960808301528860a08301528760c08301528660e083015261321d61010083018761309c565b61322b6101208301866130ac565b836101408301528215156101608301529d9c50505050505050505050505050565b60006020808301818452808551808352604092508286019150828160051b870101848801865b838110156132c957888303603f19018552815180516001600160a01b03168452878101516060898601819052906132ab8287018261305c565b92890151958901959095525094870194925090860190600101613272565b509098975050505050505050565b60006020808301818452808551808352604092508286019150828160051b870101848801865b838110156132c957888303603f19018552815180516001600160a01b0316845261018088820151818a8701526133358287018261305c565b915050878201518582038987015261334d828261305c565b606084810151908801526080808501519088015260a0808501519088015260c0808501519088015260e0808501519088015261010080850151908801526101208085015115159088015261014080850151151590880152610160938401519390925090506133bd818701846130ac565b5095880195935050908601906001016132fd565b6020808252825182820181905260009190848201906040850190845b81811015613409578351835292840192918401916001016133ed565b50909695505050505050565b6020815260006129a1602083018461305c565b6020808252602d908201527f4552433732313a2063616c6c6572206973206e6f7420746f6b656e206f776e6560408201526c1c881bdc88185c1c1c9bdd9959609a1b606082015260800190565b60208082526032908201527f4552433732313a207472616e7366657220746f206e6f6e20455243373231526560408201527131b2b4bb32b91034b6b83632b6b2b73a32b960711b606082015260800190565b60208082526025908201527f4552433732313a207472616e736665722066726f6d20696e636f72726563742060408201526437bbb732b960d91b606082015260800190565b8b81526001600160a01b038b166020820152610160604082018190526000906135378382018d61305c565b9050828103606084015261354b818c61305c565b9150508860808301528760a08301528660c083015261356d60e083018761309c565b61357b6101008301866130ac565b836101208301528215156101408301529c9b505050505050505050505050565b828152604081016129a160208301846130ac565b8481526020810184905260408101839052608081016135d16060830184613088565b95945050505050565b87815286602082015260e0604082015260006135f960e083018861305c565b828103606084015261360b818861305c565b9150508460808301528360a083015261362760c08301846130ac565b98975050505050505050565b6000821982111561364657613646613704565b500190565b60008261366657634e487b7160e01b81526012600452602481fd5b500490565b60008282101561367d5761367d613704565b500390565b60005b8381101561369d578181015183820152602001613685565b83811115611c2c5750506000910152565b600181811c908216806136c257607f821691505b602082108114156136e357634e487b7160e01b600052602260045260246000fd5b50919050565b60006000198214156136fd576136fd613704565b5060010190565b634e487b7160e01b600052601160045260246000fd5b634e487b7160e01b600052602160045260246000fd5b634e487b7160e01b600052604160045260246000fd5b6001600160e01b03198116811461212257600080fdfea26469706673582212209463c9c7d9cdb5b83b050d8a48a56ce5eb1dedc6067e15d291443f4b26f30f9764736f6c63430008040033",
  "linkReferences": {},
  "deployedLinkReferences": {}
}