{
  "_format": "hh-sol-artifact-1",
  "contractName": "Fundraising",
  "sourceName": "contracts/Fundraising.sol",
  "abi": [
    {
      "inputs": [
        {
          "internalType": "address",
          "name": "_charityEventAddress",
          "type": "address"
        },
        {
          "internalType": "address",
          "name": "_randomizedCommitteeContract",
          "type": "address"
        },
        {
          "internalType": "address payable",
          "name": "_platformAddress",
          "type": "address"
        }
      ],
      "stateMutability": "nonpayable",
      "type": "constructor"
    },
    {
      "anonymous": false,
      "inputs": [
        {
          "indexed": false,
          "internalType": "uint256",
          "name": "eventId",
          "type": "uint256"
        },
        {
          "indexed": false,
          "internalType": "address",
          "name": "donor",
          "type": "address"
        },
        {
          "indexed": false,
          "internalType": "uint256",
          "name": "amount",
          "type": "uint256"
        },
        {
          "indexed": false,
          "internalType": "string",
          "name": "message",
          "type": "string"
        }
      ],
      "name": "DonatedToEvent",
      "type": "event"
    },
    {
      "anonymous": false,
      "inputs": [
        {
          "indexed": false,
          "internalType": "uint256",
          "name": "eventId",
          "type": "uint256"
        },
        {
          "indexed": false,
          "internalType": "uint256",
          "name": "creatorShare",
          "type": "uint256"
        },
        {
          "indexed": false,
          "internalType": "address",
          "name": "creator",
          "type": "address"
        }
      ],
      "name": "FundReleasedToCreator",
      "type": "event"
    },
    {
      "anonymous": false,
      "inputs": [
        {
          "indexed": false,
          "internalType": "uint256",
          "name": "eventId",
          "type": "uint256"
        },
        {
          "indexed": false,
          "internalType": "uint256",
          "name": "platformShare",
          "type": "uint256"
        },
        {
          "indexed": false,
          "internalType": "address",
          "name": "platfrom",
          "type": "address"
        }
      ],
      "name": "FundReleasedToPlatform",
      "type": "event"
    },
    {
      "anonymous": false,
      "inputs": [
        {
          "indexed": false,
          "internalType": "uint256",
          "name": "eventId",
          "type": "uint256"
        },
        {
          "indexed": false,
          "internalType": "uint256",
          "name": "validatorShare",
          "type": "uint256"
        },
        {
          "indexed": false,
          "internalType": "address",
          "name": "validator",
          "type": "address"
        }
      ],
      "name": "FundReleasedToValidators",
      "type": "event"
    },
    {
      "anonymous": false,
      "inputs": [
        {
          "indexed": false,
          "internalType": "uint256",
          "name": "eventId",
          "type": "uint256"
        },
        {
          "indexed": false,
          "internalType": "uint256",
          "name": "amount",
          "type": "uint256"
        }
      ],
      "name": "WhitdrawRequested",
      "type": "event"
    },
    {
      "inputs": [
        {
          "internalType": "uint256",
          "name": "eventId",
          "type": "uint256"
        },
        {
          "internalType": "string",
          "name": "message",
          "type": "string"
        }
      ],
      "name": "donateToEvent",
      "outputs": [],
      "stateMutability": "payable",
      "type": "function"
    },
    {
      "inputs": [
        {
          "internalType": "address",
          "name": "_address",
          "type": "address"
        }
      ],
      "name": "getDonorDonations",
      "outputs": [
        {
          "components": [
            {
              "internalType": "address",
              "name": "donor",
              "type": "address"
            },
            {
              "internalType": "uint256",
              "name": "amount",
              "type": "uint256"
            },
            {
              "internalType": "uint256",
              "name": "eventId",
              "type": "uint256"
            },
            {
              "internalType": "uint256",
              "name": "timestamp",
              "type": "uint256"
            },
            {
              "internalType": "string",
              "name": "message",
              "type": "string"
            }
          ],
          "internalType": "struct Fundraising.Donation[]",
          "name": "",
          "type": "tuple[]"
        }
      ],
      "stateMutability": "view",
      "type": "function"
    },
    {
      "inputs": [
        {
          "internalType": "uint256",
          "name": "eventId",
          "type": "uint256"
        }
      ],
      "name": "getEventDonations",
      "outputs": [
        {
          "components": [
            {
              "internalType": "address",
              "name": "donor",
              "type": "address"
            },
            {
              "internalType": "uint256",
              "name": "amount",
              "type": "uint256"
            },
            {
              "internalType": "uint256",
              "name": "eventId",
              "type": "uint256"
            },
            {
              "internalType": "uint256",
              "name": "timestamp",
              "type": "uint256"
            },
            {
              "internalType": "string",
              "name": "message",
              "type": "string"
            }
          ],
          "internalType": "struct Fundraising.Donation[]",
          "name": "",
          "type": "tuple[]"
        }
      ],
      "stateMutability": "view",
      "type": "function"
    },
    {
      "inputs": [
        {
          "internalType": "uint256",
          "name": "committeeId",
          "type": "uint256"
        }
      ],
      "name": "getValidators",
      "outputs": [
        {
          "internalType": "address[]",
          "name": "",
          "type": "address[]"
        }
      ],
      "stateMutability": "view",
      "type": "function"
    },
    {
      "inputs": [],
      "name": "platformAddress",
      "outputs": [
        {
          "internalType": "address payable",
          "name": "",
          "type": "address"
        }
      ],
      "stateMutability": "view",
      "type": "function"
    },
    {
      "inputs": [
        {
          "internalType": "uint256",
          "name": "eventId",
          "type": "uint256"
        },
        {
          "internalType": "uint256",
          "name": "_amount",
          "type": "uint256"
        }
      ],
      "name": "requestWithdraw",
      "outputs": [],
      "stateMutability": "nonpayable",
      "type": "function"
    }
  ],
  "bytecode": "0x60806040523480156200001157600080fd5b506040516200175338038062001753833981016040819052620000349162000077565b600080546001600160a01b039485166001600160a01b031991821617909155600180549385169382169390931790925560028054919093169116179055620000e3565b6000806000606084860312156200008c578283fd5b83516200009981620000ca565b6020850151909350620000ac81620000ca565b6040850151909250620000bf81620000ca565b809150509250925092565b6001600160a01b0381168114620000e057600080fd5b50565b61166080620000f36000396000f3fe6080604052600436106100555760003560e01c806315a464061461005a5780633af1570a14610090578063471f40fb146100a55780639659c6a6146100d2578063dbe55e56146100f2578063e20cd4e31461012a575b600080fd5b34801561006657600080fd5b5061007a6100753660046110cd565b61014a565b6040516100879190611378565b60405180910390f35b6100a361009e36600461123c565b610286565b005b3480156100b157600080fd5b506100c56100c0366004611224565b6105e6565b604051610087919061132b565b3480156100de57600080fd5b5061007a6100ed366004611224565b610677565b3480156100fe57600080fd5b50600254610112906001600160a01b031681565b6040516001600160a01b039091168152602001610087565b34801561013657600080fd5b506100a36101453660046112bb565b6107a5565b6001600160a01b0381166000908152600660209081526040808320805482518185028101850190935280835260609492939192909184015b8282101561027b5760008481526020908190206040805160a0810182526005860290920180546001600160a01b03168352600181015493830193909352600283015490820152600382015460608201526004820180549192916080840191906101ea90611590565b80601f016020809104026020016040519081016040528092919081815260200182805461021690611590565b80156102635780601f1061023857610100808354040283529160200191610263565b820191906000526020600020905b81548152906001019060200180831161024657829003601f168201915b50505050508152505081526020019060010190610182565b505050509050919050565b600054604051633cbb47f960e21b8152600481018490526001600160a01b039091169063f2ed1fe49060240160206040518083038186803b1580156102ca57600080fd5b505afa1580156102de573d6000803e3d6000fd5b505050506040513d601f19601f82011682018060405250810190610302919061110c565b6103875760405162461bcd60e51b8152602060048201526044602482018190527f546865206576656e74206973206e6f7420636f6e6669726d6564206279207468908201527f6520636f6d6d6974746565206f722046756e646172616973696e67206973206f6064820152633b32b91760e11b608482015260a4015b60405180910390fd5b600034116103e65760405162461bcd60e51b815260206004820152602660248201527f446f6e6174696f6e20616d6f756e74206d75737420626520677265617465722060448201526507468616e20360d41b606482015260840161037e565b60006040518060a00160405280336001600160a01b031681526020013481526020018481526020014281526020018381525090503460046000858152602001908152602001600020600082825461043d91906114f2565b909155505060005460405163d86ac8d760e01b8152600481018590523460248201526001600160a01b039091169063d86ac8d790604401600060405180830381600087803b15801561048e57600080fd5b505af11580156104a2573d6000803e3d6000fd5b50505060008481526005602081815260408084208054600180820183559186529483902087519590940290930180546001600160a01b0319166001600160a01b03909516949094178455858201519284019290925590840151600283015560608401516003830155608084015180518594506105249260048501920190610e78565b505033600090815260066020908152604080832080546001808201835591855293839020865160059095020180546001600160a01b0319166001600160a01b039095169490941784558583015190840155840151600283015560608401516003830155608084015180518594506105a19260048501920190610e78565b5050507f7dde3bddfc2c66bb9a6521a5e369a0617ab2f36682e4e4026760be8c574f6230833334856040516105d99493929190611415565b60405180910390a1505050565b60015460405163e43b0c9d60e01b8152600481018390526060916000916001600160a01b039091169063e43b0c9d9060240160006040518083038186803b15801561063057600080fd5b505afa158015610644573d6000803e3d6000fd5b505050506040513d6000823e601f3d908101601f1916820160405261066c9190810190611126565b602001519392505050565b606060056000838152602001908152602001600020805480602002602001604051908101604052809291908181526020016000905b8282101561027b5760008481526020908190206040805160a0810182526005860290920180546001600160a01b031683526001810154938301939093526002830154908201526003820154606082015260048201805491929160808401919061071490611590565b80601f016020809104026020016040519081016040528092919081815260200182805461074090611590565b801561078d5780601f106107625761010080835404028352916020019161078d565b820191906000526020600020905b81548152906001019060200180831161077057829003601f168201915b505050505081525050815260200190600101906106ac565b60005460405163f289259f60e01b8152600481018490526001600160a01b039091169063f289259f9060240160206040518083038186803b1580156107e957600080fd5b505afa1580156107fd573d6000803e3d6000fd5b505050506040513d601f19601f8201168201806040525081019061082191906110f0565b6001600160a01b0316336001600160a01b03161461088f5760405162461bcd60e51b815260206004820152602560248201527f596f7520617265206e6f74207468652063726561746f72206f662074686520656044820152643b32b73a1760d91b606482015260840161037e565b60005460405163d60fe87d60e01b8152600481018490526001600160a01b039091169063d60fe87d9060240160206040518083038186803b1580156108d357600080fd5b505afa1580156108e7573d6000803e3d6000fd5b505050506040513d601f19601f8201168201806040525081019061090b919061110c565b6109575760405162461bcd60e51b815260206004820152601c60248201527f46756e6472616973696e67206973206e6f74206f766572207965742e00000000604482015260640161037e565b600080546040516310bdc6c960e21b81526004810185905282916001600160a01b0316906342f71b2490602401604080518083038186803b15801561099b57600080fd5b505afa1580156109af573d6000803e3d6000fd5b505050506040513d601f19601f820116820180604052508101906109d391906112dc565b9092509050828114610a4d5760405162461bcd60e51b815260206004820152603c60248201527f596f75722072657175657374656420616d6f756e742073686f756c642062652060448201527f7468652073616d65206173206d696c6573746f6e6520616d6f756e7400000000606482015260840161037e565b600084815260046020526040902054831115610ad15760405162461bcd60e51b815260206004820152603760248201527f596f75722072657175657374656420616d6f756e74206973206869676865722060448201527f7468616e20746865206576656e742062616c616e636365000000000000000000606482015260840161037e565b60408051858152602081018390527f20247d5ef9f4bf5ef472201a6b45be2e8fb2275e591054fd2becffffd00ab3da910160405180910390a160006064610b1985600561152a565b610b23919061150a565b905060006064610b3486600361152a565b610b3e919061150a565b9050600081610b4d8488611549565b610b579190611549565b9050606085610b7057610b69886105e6565b9050610b81565b610b7e6100c0600188611549565b90505b6000815184610b90919061150a565b905060005b8251811015610cee57828181518110610bbe57634e487b7160e01b600052603260045260246000fd5b60200260200101516001600160a01b03166108fc839081150290604051600060405180830381858888f19350505050158015610bfe573d6000803e3d6000fd5b5060036000848381518110610c2357634e487b7160e01b600052603260045260246000fd5b6020908102919091018101516001600160a01b0316825281810192909252604001600090812080546001810182559082529190200182905582517f8c8b0b5d084c2c9c53c1cb8adc68f8c33bc61f7e214cbc760d3a9894f16d1cc0908b908490869085908110610ca357634e487b7160e01b600052603260045260246000fd5b6020026020010151604051610cd49392919092835260208301919091526001600160a01b0316604082015260600190565b60405180910390a180610ce6816115cb565b915050610b95565b506002546040516001600160a01b039091169086156108fc029087906000818181858888f19350505050158015610d29573d6000803e3d6000fd5b50600254604080518b8152602081018890526001600160a01b0390921682820152517f0cc3ee3ef9b34d9c87b0b0685c6d8bd95ab1792111a08e44300f6cd8afd262639181900360600190a1604051339084156108fc029085906000818181858888f19350505050158015610da2573d6000803e3d6000fd5b50604080518a815260208101859052338183015290517f75231d9d229f667a9d6bdfce58e141713586eab4ac4ce79d54bf5c88d11b7ca79181900360600190a1610e246040518060e001604052806000815260200160008152602001600081526020016060815260200160608152602001606081526020016000151581525090565b98895250426020808a01919091526040808a01989098528751808901909852600a885269139bc818dbdb5b595b9d60b21b9088015260808801969096525050505060a083019190915250600160c090910152565b828054610e8490611590565b90600052602060002090601f016020900481019282610ea65760008555610eec565b82601f10610ebf57805160ff1916838001178555610eec565b82800160010185558215610eec579182015b82811115610eec578251825591602001919060010190610ed1565b50610ef8929150610efc565b5090565b5b80821115610ef85760008155600101610efd565b600082601f830112610f21578081fd5b81516020610f36610f31836114a6565b611475565b80838252828201915082860187848660051b8901011115610f55578586fd5b855b85811015610f7c578151610f6a81611612565b84529284019290840190600101610f57565b5090979650505050505050565b600082601f830112610f99578081fd5b81516020610fa9610f31836114a6565b80838252828201915082860187848660051b8901011115610fc8578586fd5b855b85811015610f7c57610fdb8261106d565b84529284019290840190600101610fca565b600082601f830112610ffd578081fd5b8151602061100d610f31836114a6565b80838252828201915082860187848660051b890101111561102c578586fd5b855b85811015610f7c57815167ffffffffffffffff81111561104c578788fd5b61105a8a87838c0101611082565b855250928401929084019060010161102e565b8051801515811461107d57600080fd5b919050565b600082601f830112611092578081fd5b81516110a0610f31826114ca565b8181528460208386010111156110b4578283fd5b6110c5826020830160208701611560565b949350505050565b6000602082840312156110de578081fd5b81356110e981611612565b9392505050565b600060208284031215611101578081fd5b81516110e981611612565b60006020828403121561111d578081fd5b6110e98261106d565b600060208284031215611137578081fd5b815167ffffffffffffffff8082111561114e578283fd5b9083019060e08286031215611161578283fd5b61116961144c565b6111728361106d565b8152602083015182811115611185578485fd5b61119187828601610f11565b6020830152506040830151828111156111a8578485fd5b6111b487828601610f89565b6040830152506060830151828111156111cb578485fd5b6111d787828601610fed565b606083015250608083015160808201526111f360a0840161106d565b60a082015260c083015182811115611209578485fd5b61121587828601611082565b60c08301525095945050505050565b600060208284031215611235578081fd5b5035919050565b6000806040838503121561124e578081fd5b82359150602083013567ffffffffffffffff81111561126b578182fd5b8301601f8101851361127b578182fd5b8035611289610f31826114ca565b81815286602083850101111561129d578384fd5b81602084016020830137908101602001929092525090939092509050565b600080604083850312156112cd578182fd5b50508035926020909101359150565b600080604083850312156112ee578182fd5b505080516020909101519092909150565b60008151808452611317816020860160208601611560565b601f01601f19169290920160200192915050565b6020808252825182820181905260009190848201906040850190845b8181101561136c5783516001600160a01b031683529284019291840191600101611347565b50909695505050505050565b60006020808301818452808551808352604092508286019150828160051b870101848801865b8381101561140757888303603f19018552815180516001600160a01b03168452878101518885015286810151878501526060808201519085015260809081015160a0918501829052906113f3818601836112ff565b96890196945050509086019060010161139e565b509098975050505050505050565b84815260018060a01b038416602082015282604082015260806060820152600061144260808301846112ff565b9695505050505050565b60405160e0810167ffffffffffffffff8111828210171561146f5761146f6115fc565b60405290565b604051601f8201601f1916810167ffffffffffffffff8111828210171561149e5761149e6115fc565b604052919050565b600067ffffffffffffffff8211156114c0576114c06115fc565b5060051b60200190565b600067ffffffffffffffff8211156114e4576114e46115fc565b50601f01601f191660200190565b60008219821115611505576115056115e6565b500190565b60008261152557634e487b7160e01b81526012600452602481fd5b500490565b6000816000190483118215151615611544576115446115e6565b500290565b60008282101561155b5761155b6115e6565b500390565b60005b8381101561157b578181015183820152602001611563565b8381111561158a576000848401525b50505050565b600181811c908216806115a457607f821691505b602082108114156115c557634e487b7160e01b600052602260045260246000fd5b50919050565b60006000198214156115df576115df6115e6565b5060010190565b634e487b7160e01b600052601160045260246000fd5b634e487b7160e01b600052604160045260246000fd5b6001600160a01b038116811461162757600080fd5b5056fea26469706673582212203c2e9a5ec584bead1ee874d78e1243a6443d4b3717785d7bc77a984ca58c7ea264736f6c63430008040033",
  "linkReferences": {},
  "deployedLinkReferences": {}
}