{
  "_format": "hh-sol-artifact-1",
  "contractName": "RandomizedCommittee",
  "sourceName": "contracts/RandomizedCommittee.sol",
  "abi": [
    {
      "anonymous": false,
      "inputs": [
        {
          "indexed": false,
          "internalType": "uint256",
          "name": "newCommitteeId",
          "type": "uint256"
        },
        {
          "indexed": false,
          "internalType": "uint256",
          "name": "_committeeTypeId",
          "type": "uint256"
        },
        {
          "indexed": false,
          "internalType": "uint256",
          "name": "_milestoneIndex",
          "type": "uint256"
        },
        {
          "indexed": false,
          "internalType": "enum RandomizedCommittee.CommitteeType",
          "name": "_committeeType",
          "type": "uint8"
        },
        {
          "indexed": false,
          "internalType": "address",
          "name": "member",
          "type": "address"
        }
      ],
      "name": "ChosenAsCommitteeMember",
      "type": "event"
    },
    {
      "anonymous": false,
      "inputs": [
        {
          "indexed": true,
          "internalType": "uint256",
          "name": "committeeId",
          "type": "uint256"
        },
        {
          "indexed": false,
          "internalType": "address[]",
          "name": "members",
          "type": "address[]"
        },
        {
          "indexed": false,
          "internalType": "uint256",
          "name": "_committeeTypeId",
          "type": "uint256"
        },
        {
          "indexed": false,
          "internalType": "uint256",
          "name": "_milestoneIndex",
          "type": "uint256"
        },
        {
          "indexed": false,
          "internalType": "enum RandomizedCommittee.CommitteeType",
          "name": "_committeeType",
          "type": "uint8"
        }
      ],
      "name": "CommitteeFormed",
      "type": "event"
    },
    {
      "anonymous": false,
      "inputs": [
        {
          "indexed": true,
          "internalType": "uint256",
          "name": "committeeId",
          "type": "uint256"
        },
        {
          "indexed": true,
          "internalType": "address",
          "name": "member",
          "type": "address"
        },
        {
          "indexed": false,
          "internalType": "bool",
          "name": "decision",
          "type": "bool"
        },
        {
          "indexed": false,
          "internalType": "string",
          "name": "feedback",
          "type": "string"
        }
      ],
      "name": "DecisionRecorded",
      "type": "event"
    },
    {
      "anonymous": false,
      "inputs": [
        {
          "indexed": true,
          "internalType": "uint256",
          "name": "committeeId",
          "type": "uint256"
        },
        {
          "indexed": false,
          "internalType": "bool",
          "name": "finalDecision",
          "type": "bool"
        }
      ],
      "name": "FinalDecision",
      "type": "event"
    },
    {
      "anonymous": false,
      "inputs": [
        {
          "indexed": true,
          "internalType": "bytes32",
          "name": "role",
          "type": "bytes32"
        },
        {
          "indexed": true,
          "internalType": "bytes32",
          "name": "previousAdminRole",
          "type": "bytes32"
        },
        {
          "indexed": true,
          "internalType": "bytes32",
          "name": "newAdminRole",
          "type": "bytes32"
        }
      ],
      "name": "RoleAdminChanged",
      "type": "event"
    },
    {
      "anonymous": false,
      "inputs": [
        {
          "indexed": true,
          "internalType": "bytes32",
          "name": "role",
          "type": "bytes32"
        },
        {
          "indexed": true,
          "internalType": "address",
          "name": "account",
          "type": "address"
        },
        {
          "indexed": true,
          "internalType": "address",
          "name": "sender",
          "type": "address"
        }
      ],
      "name": "RoleGranted",
      "type": "event"
    },
    {
      "anonymous": false,
      "inputs": [
        {
          "indexed": true,
          "internalType": "bytes32",
          "name": "role",
          "type": "bytes32"
        },
        {
          "indexed": true,
          "internalType": "address",
          "name": "account",
          "type": "address"
        },
        {
          "indexed": true,
          "internalType": "address",
          "name": "sender",
          "type": "address"
        }
      ],
      "name": "RoleRevoked",
      "type": "event"
    },
    {
      "inputs": [],
      "name": "COMMITTEE_MEMBER_ROLE",
      "outputs": [
        {
          "internalType": "bytes32",
          "name": "",
          "type": "bytes32"
        }
      ],
      "stateMutability": "view",
      "type": "function"
    },
    {
      "inputs": [],
      "name": "DEFAULT_ADMIN_ROLE",
      "outputs": [
        {
          "internalType": "bytes32",
          "name": "",
          "type": "bytes32"
        }
      ],
      "stateMutability": "view",
      "type": "function"
    },
    {
      "inputs": [],
      "name": "DONOR_ROLE",
      "outputs": [
        {
          "internalType": "bytes32",
          "name": "",
          "type": "bytes32"
        }
      ],
      "stateMutability": "view",
      "type": "function"
    },
    {
      "inputs": [],
      "name": "GetMyDecisions",
      "outputs": [
        {
          "internalType": "uint256[]",
          "name": "",
          "type": "uint256[]"
        }
      ],
      "stateMutability": "view",
      "type": "function"
    },
    {
      "inputs": [],
      "name": "PROPOSAL_CREATOR_ROLE",
      "outputs": [
        {
          "internalType": "bytes32",
          "name": "",
          "type": "bytes32"
        }
      ],
      "stateMutability": "view",
      "type": "function"
    },
    {
      "inputs": [],
      "name": "VALIDATOR_ROLE",
      "outputs": [
        {
          "internalType": "bytes32",
          "name": "",
          "type": "bytes32"
        }
      ],
      "stateMutability": "view",
      "type": "function"
    },
    {
      "inputs": [
        {
          "internalType": "address",
          "name": "newValidator",
          "type": "address"
        }
      ],
      "name": "addValidator",
      "outputs": [],
      "stateMutability": "nonpayable",
      "type": "function"
    },
    {
      "inputs": [
        {
          "internalType": "uint256",
          "name": "",
          "type": "uint256"
        }
      ],
      "name": "committees",
      "outputs": [
        {
          "internalType": "uint256",
          "name": "totalMembers",
          "type": "uint256"
        },
        {
          "internalType": "uint256",
          "name": "yesVotes",
          "type": "uint256"
        },
        {
          "internalType": "uint256",
          "name": "noVotes",
          "type": "uint256"
        },
        {
          "internalType": "uint256",
          "name": "committeeTypeId",
          "type": "uint256"
        },
        {
          "internalType": "uint256",
          "name": "milestoneIndex",
          "type": "uint256"
        },
        {
          "internalType": "enum RandomizedCommittee.CommitteeType",
          "name": "committeeType",
          "type": "uint8"
        }
      ],
      "stateMutability": "view",
      "type": "function"
    },
    {
      "inputs": [
        {
          "internalType": "uint256",
          "name": "size",
          "type": "uint256"
        },
        {
          "internalType": "uint256",
          "name": "_committeeTypeId",
          "type": "uint256"
        },
        {
          "internalType": "uint256",
          "name": "_milestoneIndex",
          "type": "uint256"
        },
        {
          "internalType": "enum RandomizedCommittee.CommitteeType",
          "name": "_committeeType",
          "type": "uint8"
        }
      ],
      "name": "formCommittee",
      "outputs": [
        {
          "internalType": "uint256",
          "name": "",
          "type": "uint256"
        }
      ],
      "stateMutability": "nonpayable",
      "type": "function"
    },
    {
      "inputs": [],
      "name": "getAllOngoingDecisions",
      "outputs": [
        {
          "internalType": "uint256[]",
          "name": "",
          "type": "uint256[]"
        }
      ],
      "stateMutability": "view",
      "type": "function"
    },
    {
      "inputs": [],
      "name": "getAllPastDecisions",
      "outputs": [
        {
          "internalType": "uint256[]",
          "name": "",
          "type": "uint256[]"
        }
      ],
      "stateMutability": "view",
      "type": "function"
    },
    {
      "inputs": [],
      "name": "getAllValidatorsAddress",
      "outputs": [
        {
          "internalType": "address[]",
          "name": "",
          "type": "address[]"
        }
      ],
      "stateMutability": "view",
      "type": "function"
    },
    {
      "inputs": [
        {
          "internalType": "uint256",
          "name": "committeeId",
          "type": "uint256"
        }
      ],
      "name": "getCommitteeDecision",
      "outputs": [
        {
          "components": [
            {
              "internalType": "bool",
              "name": "isCompleted",
              "type": "bool"
            },
            {
              "internalType": "address[]",
              "name": "validatorAddresses",
              "type": "address[]"
            },
            {
              "internalType": "bool[]",
              "name": "validatorVotes",
              "type": "bool[]"
            },
            {
              "internalType": "string[]",
              "name": "validatorFeedbacks",
              "type": "string[]"
            },
            {
              "internalType": "uint256",
              "name": "totalValidators",
              "type": "uint256"
            },
            {
              "internalType": "bool",
              "name": "finalDecision",
              "type": "bool"
            },
            {
              "internalType": "string",
              "name": "concatenatedFeedback",
              "type": "string"
            }
          ],
          "internalType": "struct RandomizedCommittee.CommitteeDecisionDetails",
          "name": "",
          "type": "tuple"
        }
      ],
      "stateMutability": "view",
      "type": "function"
    },
    {
      "inputs": [
        {
          "internalType": "bytes32",
          "name": "role",
          "type": "bytes32"
        }
      ],
      "name": "getRoleAdmin",
      "outputs": [
        {
          "internalType": "bytes32",
          "name": "",
          "type": "bytes32"
        }
      ],
      "stateMutability": "view",
      "type": "function"
    },
    {
      "inputs": [
        {
          "internalType": "address",
          "name": "_address",
          "type": "address"
        }
      ],
      "name": "getUserOngoingDecisions",
      "outputs": [
        {
          "internalType": "uint256[]",
          "name": "",
          "type": "uint256[]"
        }
      ],
      "stateMutability": "view",
      "type": "function"
    },
    {
      "inputs": [
        {
          "internalType": "address",
          "name": "_address",
          "type": "address"
        }
      ],
      "name": "getUserPastDecisions",
      "outputs": [
        {
          "internalType": "uint256[]",
          "name": "",
          "type": "uint256[]"
        }
      ],
      "stateMutability": "view",
      "type": "function"
    },
    {
      "inputs": [],
      "name": "getValidatorCount",
      "outputs": [
        {
          "internalType": "uint256",
          "name": "",
          "type": "uint256"
        }
      ],
      "stateMutability": "view",
      "type": "function"
    },
    {
      "inputs": [
        {
          "internalType": "address",
          "name": "account",
          "type": "address"
        }
      ],
      "name": "grantCommitteeMemberRole",
      "outputs": [],
      "stateMutability": "nonpayable",
      "type": "function"
    },
    {
      "inputs": [
        {
          "internalType": "address",
          "name": "account",
          "type": "address"
        }
      ],
      "name": "grantDonorRole",
      "outputs": [],
      "stateMutability": "nonpayable",
      "type": "function"
    },
    {
      "inputs": [
        {
          "internalType": "address",
          "name": "account",
          "type": "address"
        }
      ],
      "name": "grantProposalCreatorRole",
      "outputs": [],
      "stateMutability": "nonpayable",
      "type": "function"
    },
    {
      "inputs": [
        {
          "internalType": "bytes32",
          "name": "role",
          "type": "bytes32"
        },
        {
          "internalType": "address",
          "name": "account",
          "type": "address"
        }
      ],
      "name": "grantRole",
      "outputs": [],
      "stateMutability": "nonpayable",
      "type": "function"
    },
    {
      "inputs": [
        {
          "internalType": "address",
          "name": "account",
          "type": "address"
        }
      ],
      "name": "grantValidatorRole",
      "outputs": [],
      "stateMutability": "nonpayable",
      "type": "function"
    },
    {
      "inputs": [
        {
          "internalType": "bytes32",
          "name": "role",
          "type": "bytes32"
        },
        {
          "internalType": "address",
          "name": "account",
          "type": "address"
        }
      ],
      "name": "hasRole",
      "outputs": [
        {
          "internalType": "bool",
          "name": "",
          "type": "bool"
        }
      ],
      "stateMutability": "view",
      "type": "function"
    },
    {
      "inputs": [
        {
          "internalType": "uint256",
          "name": "committeeId",
          "type": "uint256"
        },
        {
          "internalType": "address",
          "name": "member",
          "type": "address"
        }
      ],
      "name": "isCommitteeMember",
      "outputs": [
        {
          "internalType": "bool",
          "name": "",
          "type": "bool"
        }
      ],
      "stateMutability": "view",
      "type": "function"
    },
    {
      "inputs": [
        {
          "internalType": "uint256",
          "name": "committeeId",
          "type": "uint256"
        },
        {
          "internalType": "bool",
          "name": "decision",
          "type": "bool"
        },
        {
          "internalType": "string",
          "name": "feedback",
          "type": "string"
        }
      ],
      "name": "recordDecision",
      "outputs": [],
      "stateMutability": "nonpayable",
      "type": "function"
    },
    {
      "inputs": [
        {
          "internalType": "address",
          "name": "validatorToRemove",
          "type": "address"
        }
      ],
      "name": "removeValidator",
      "outputs": [],
      "stateMutability": "nonpayable",
      "type": "function"
    },
    {
      "inputs": [
        {
          "internalType": "bytes32",
          "name": "role",
          "type": "bytes32"
        },
        {
          "internalType": "address",
          "name": "account",
          "type": "address"
        }
      ],
      "name": "renounceRole",
      "outputs": [],
      "stateMutability": "nonpayable",
      "type": "function"
    },
    {
      "inputs": [
        {
          "internalType": "address",
          "name": "account",
          "type": "address"
        }
      ],
      "name": "revokeCommitteeMemberRole",
      "outputs": [],
      "stateMutability": "nonpayable",
      "type": "function"
    },
    {
      "inputs": [
        {
          "internalType": "address",
          "name": "account",
          "type": "address"
        }
      ],
      "name": "revokeDonorRole",
      "outputs": [],
      "stateMutability": "nonpayable",
      "type": "function"
    },
    {
      "inputs": [
        {
          "internalType": "address",
          "name": "account",
          "type": "address"
        }
      ],
      "name": "revokeProposalCreatorRole",
      "outputs": [],
      "stateMutability": "nonpayable",
      "type": "function"
    },
    {
      "inputs": [
        {
          "internalType": "bytes32",
          "name": "role",
          "type": "bytes32"
        },
        {
          "internalType": "address",
          "name": "account",
          "type": "address"
        }
      ],
      "name": "revokeRole",
      "outputs": [],
      "stateMutability": "nonpayable",
      "type": "function"
    },
    {
      "inputs": [
        {
          "internalType": "address",
          "name": "account",
          "type": "address"
        }
      ],
      "name": "revokeValidatorRole",
      "outputs": [],
      "stateMutability": "nonpayable",
      "type": "function"
    },
    {
      "inputs": [
        {
          "internalType": "bytes4",
          "name": "interfaceId",
          "type": "bytes4"
        }
      ],
      "name": "supportsInterface",
      "outputs": [
        {
          "internalType": "bool",
          "name": "",
          "type": "bool"
        }
      ],
      "stateMutability": "view",
      "type": "function"
    },
    {
      "inputs": [
        {
          "internalType": "address",
          "name": "_validatorAddress",
          "type": "address"
        },
        {
          "internalType": "address",
          "name": "_charityEventAddress",
          "type": "address"
        }
      ],
      "name": "updateValidatorCharityEventAddress",
      "outputs": [],
      "stateMutability": "nonpayable",
      "type": "function"
    },
    {
      "inputs": [
        {
          "internalType": "address",
          "name": "",
          "type": "address"
        },
        {
          "internalType": "uint256",
          "name": "",
          "type": "uint256"
        }
      ],
      "name": "validatorCommittees",
      "outputs": [
        {
          "internalType": "uint256",
          "name": "",
          "type": "uint256"
        }
      ],
      "stateMutability": "view",
      "type": "function"
    },
    {
      "inputs": [
        {
          "internalType": "uint256",
          "name": "",
          "type": "uint256"
        }
      ],
      "name": "validators",
      "outputs": [
        {
          "internalType": "address",
          "name": "",
          "type": "address"
        }
      ],
      "stateMutability": "view",
      "type": "function"
    }
  ],
  "bytecode": "0x60806040523480156200001157600080fd5b506200001f600033620000d5565b6200004b7f21702c8af46127c7fa207f89d0b0a8441bb32959a0ac7df790e9ab1a25c9892633620000d5565b620000777f7590f0264744cd50915976d360e18170bc29db6f1a196d3b1061f7f19405217033620000d5565b620000a37fb0f3aac3b44b4004b6bf1079361f8b30fa03aa59a548b7dcd16495466c6f0cea33620000d5565b620000cf7f8a21e8fdae6c23863f7de5307e2e7162c88dab602a41610addb5f1505d25939833620000d5565b62000185565b620000e18282620000e5565b5050565b6000828152602081815260408083206001600160a01b038516845290915290205460ff16620000e1576000828152602081815260408083206001600160a01b03851684529091529020805460ff19166001179055620001413390565b6001600160a01b0316816001600160a01b0316837f2f8788117e7eff1d82e926ec794901d17c78024a50270940304540a733656f0d60405160405180910390a45050565b61308280620001956000396000f3fe608060405234801561001057600080fd5b506004361061021c5760003560e01c80638dda121f11610125578063d547741f116100ad578063ec231f3e1161007c578063ec231f3e146104c8578063f06b560f146104ef578063f1b0023814610502578063f385a47e14610515578063f5e820fd1461052a57600080fd5b8063d547741f1461047a578063e43b0c9d1461048d578063e450e096146104ad578063eb9b5dc4146104c057600080fd5b8063a93fb517116100f4578063a93fb51714610405578063b18961c014610418578063c49baebe1461042b578063c864be8a14610440578063c926ba971461046757600080fd5b80638dda121f146103c457806391d14854146103d7578063a217fddf146103ea578063a8a4d69b146103f257600080fd5b806340a141ff116101a85780637071688a116101775780637071688a1461037b5780637fa2277e1461038357806387a056891461038b5780638a934e5e1461039e5780638ae647df146103b157600080fd5b806340a141ff1461032f57806343bbc054146103425780634d238c8e146103555780635df64ce91461036857600080fd5b8063248a9ca3116101ef578063248a9ca3146102a857806329514204146102cb5780632f2ff15d146102de57806335aa2e44146102f157806336568abe1461031c57600080fd5b806301ffc9a714610221578063087eab4b146102495780630ceba0141461025e57806315b3958e14610273575b600080fd5b61023461022f366004612973565b610588565b60405190151581526020015b60405180910390f35b6102516105bf565b6040516102409190612d3f565b61027161026c36600461299b565b610620565b005b61029a7f8a21e8fdae6c23863f7de5307e2e7162c88dab602a41610addb5f1505d25939881565b604051908152602001610240565b61029a6102b6366004612939565b60009081526020819052604090206001015490565b6102716102d93660046128c4565b610aca565b6102716102ec366004612951565b610af1565b6103046102ff366004612939565b610b1b565b6040516001600160a01b039091168152602001610240565b61027161032a366004612951565b610b45565b61027161033d3660046128c4565b610bbf565b6102716103503660046128c4565b610d81565b6102716103633660046128c4565b610db6565b61029a610376366004612910565b610ed2565b60045461029a565b610251610f03565b61029a610399366004612a66565b6110b4565b6102716103ac3660046128c4565b61175c565b6102716103bf3660046128c4565b611791565b6102516103d23660046128c4565b6117b4565b6102346103e5366004612951565b611a10565b61029a600081565b610234610400366004612951565b611a39565b6102716104133660046128de565b611b5a565b6102716104263660046128c4565b611b94565b61029a60008051602061302d83398151915281565b61029a7f7590f0264744cd50915976d360e18170bc29db6f1a196d3b1061f7f19405217081565b6102716104753660046128c4565b611bc9565b610271610488366004612951565b611bfe565b6104a061049b366004612939565b611c23565b6040516102409190612de7565b6102516104bb3660046128c4565b611ff4565b610251612246565b61029a7fb0f3aac3b44b4004b6bf1079361f8b30fa03aa59a548b7dcd16495466c6f0cea81565b6102716104fd3660046128c4565b6123ef565b6102716105103660046128c4565b612424565b61051d612459565b6040516102409190612cf5565b610576610538366004612939565b600560208190526000918252604090912060028101546003820154600483015493830154600684015460079094015492949193919290919060ff1686565b60405161024096959493929190612ec5565b60006001600160e01b03198216637965db0b60e01b14806105b957506301ffc9a760e01b6001600160e01b03198316145b92915050565b3360009081526006602090815260409182902080548351818402810184019094528084526060939283018282801561061657602002820191906000526020600020905b815481526020019060010190808311610602575b5050505050905090565b60008051602061302d833981519152610638816124ba565b6001548411156106635760405162461bcd60e51b815260040161065a90612db9565b60405180910390fd5b6000848152600560205260409020600201546106b85760405162461bcd60e51b815260206004820152601460248201527310dbdb5b5a5d1d1959481b9bdd08199bdc9b595960621b604482015260640161065a565b60008481526005602090815260408083203384529182905290912054610100900460ff16156107195760405162461bcd60e51b815260206004820152600d60248201526c105b1c9958591e481d9bdd1959609a1b604482015260640161065a565b6040805160808101825260018082526020808301828152881515848601908152606085018981523360009081528885529690962085518154935192511515620100000262ff0000199315156101000261ff00199215159290921661ffff19909516949094171791909116919091178155935180519394936107a193850192919091019061280f565b5090505083156107c55760038101546107bb9060016124c7565b60038201556107db565b60048101546107d59060016124c7565b60048201555b336001600160a01b0316857feb03e4c9afabdf3b4ffdab6ef4e17813ca4272fcfa2ca9dc675ba96d40d58d608686604051610817929190612d83565b60405180910390a3600281015460048201546003830154610837916124c7565b1415610a175760048101546003820154116002600783015460ff16600281111561087157634e487b7160e01b600052602160045260246000fd5b14156108e957600254600583015460405163562506c960e11b8152600481019190915282151560248201526001600160a01b039091169063ac4a0d92906044015b600060405180830381600087803b1580156108cc57600080fd5b505af11580156108e0573d6000803e3d6000fd5b505050506109d5565b6000600783015460ff16600281111561091257634e487b7160e01b600052602160045260246000fd5b141561095757600354600583015460405163ce5d6b4360e01b8152600481019190915282151560248201526001600160a01b039091169063ce5d6b43906044016108b2565b60035460058301546006840154604051638458762d60e01b8152600481019290925260248201528215156044820152600160648201526001600160a01b0390911690638458762d90608401600060405180830381600087803b1580156109bc57600080fd5b505af11580156109d0573d6000803e3d6000fd5b505050505b857f6cdaf0b7859500949f8b0e308a19dfd1b6fd3588b780db07a99140b58c39cdb682604051610a09911515815260200190565b60405180910390a250610ac3565b6001600782015460ff166002811115610a4057634e487b7160e01b600052602160045260246000fd5b1415610ac35760035460058201546006830154604051638458762d60e01b81526004810192909252602482015260006044820181905260648201526001600160a01b0390911690638458762d90608401600060405180830381600087803b158015610aaa57600080fd5b505af1158015610abe573d6000803e3d6000fd5b505050505b5050505050565b6000610ad5816124ba565b610aed60008051602061302d83398151915283611bfe565b5050565b600082815260208190526040902060010154610b0c816124ba565b610b1683836124da565b505050565b60048181548110610b2b57600080fd5b6000918252602090912001546001600160a01b0316905081565b6001600160a01b0381163314610bb55760405162461bcd60e51b815260206004820152602f60248201527f416363657373436f6e74726f6c3a2063616e206f6e6c792072656e6f756e636560448201526e103937b632b9903337b91039b2b63360891b606482015260840161065a565b610aed828261255e565b6000610bca816124ba565b600454600090610bdb906001612ef5565b905060005b600454811015610c4a57836001600160a01b031660048281548110610c1557634e487b7160e01b600052603260045260246000fd5b6000918252602090912001546001600160a01b03161415610c3857809150610c4a565b80610c4281612fc5565b915050610be0565b506004548110610c925760405162461bcd60e51b815260206004820152601360248201527215985b1a59185d1bdc881b9bdd08199bdd5b99606a1b604482015260640161065a565b60048054610ca290600190612f2c565b81548110610cc057634e487b7160e01b600052603260045260246000fd5b600091825260209091200154600480546001600160a01b039092169183908110610cfa57634e487b7160e01b600052603260045260246000fd5b9060005260206000200160006101000a8154816001600160a01b0302191690836001600160a01b031602179055506004805480610d4757634e487b7160e01b600052603160045260246000fd5b600082815260209020810160001990810180546001600160a01b0319169055019055610b1660008051602061302d83398151915284611bfe565b6000610d8c816124ba565b610aed7f7590f0264744cd50915976d360e18170bc29db6f1a196d3b1061f7f19405217083611bfe565b6000610dc1816124ba565b60005b600454811015610e6e57826001600160a01b031660048281548110610df957634e487b7160e01b600052603260045260246000fd5b6000918252602090912001546001600160a01b03161415610e5c5760405162461bcd60e51b815260206004820152601e60248201527f4164647265737320697320616c726561647920612076616c696461746f720000604482015260640161065a565b80610e6681612fc5565b915050610dc4565b50600480546001810182556000919091527f8a35acfbc15ff81a39ae7d344fd709f28e8600b4aa8c65c6b64bfe7fe36bd19b0180546001600160a01b0319166001600160a01b038416179055610aed60008051602061302d83398151915283610af1565b60066020528160005260406000208181548110610eee57600080fd5b90600052602060002001600091509150505481565b6060600080610f1160015490565b6001600160401b03811115610f3657634e487b7160e01b600052604160045260246000fd5b604051908082528060200260200182016040528015610f5f578160200160208202803683370190505b50905060015b6001548111610fe7576000818152600560205260409020600281015460048201546003830154610f94916124c7565b1415610fd45781838581518110610fbb57634e487b7160e01b600052603260045260246000fd5b602090810291909101015283610fd081612fc5565b9450505b5080610fdf81612fc5565b915050610f65565b506000826001600160401b0381111561101057634e487b7160e01b600052604160045260246000fd5b604051908082528060200260200182016040528015611039578160200160208202803683370190505b50905060005b838110156110ac5782818151811061106757634e487b7160e01b600052603260045260246000fd5b602002602001015182828151811061108f57634e487b7160e01b600052603260045260246000fd5b6020908102919091010152806110a481612fc5565b91505061103f565b509392505050565b600060008051602061302d8339815191526110ce816124ba565b60045486111561112a5760405162461bcd60e51b815260206004820152602160248201527f53697a652065786365656473206e756d626572206f662076616c696461746f726044820152607360f81b606482015260840161065a565b6000866001600160401b0381111561115257634e487b7160e01b600052604160045260246000fd5b60405190808252806020026020018201604052801561117b578160200160208202803683370190505b506004549091506000906001600160401b038111156111aa57634e487b7160e01b600052604160045260246000fd5b6040519080825280602002602001820160405280156111d3578160200160208202803683370190505b5090506000805b8981101561142d5760045460408051446020820152429181019190915260608101839052600091906080016040516020818303038152906040528051906020012060001c6112289190612fe0565b905060006004828154811061124d57634e487b7160e01b600052603260045260246000fd5b60009182526020822001546001600160a01b03169150805b858110156112c957826001600160a01b031687828151811061129757634e487b7160e01b600052603260045260246000fd5b60200260200101516001600160a01b031614156112b757600191506112c9565b806112c181612fc5565b915050611265565b505b8015611390576004546112df846001612ef5565b6112e99190612fe0565b92506004838154811061130c57634e487b7160e01b600052603260045260246000fd5b60009182526020822001546001600160a01b031692509050805b8581101561138a57826001600160a01b031687828151811061135857634e487b7160e01b600052603260045260246000fd5b60200260200101516001600160a01b03161415611378576001915061138a565b8061138281612fc5565b915050611326565b506112cb565b818686815181106113b157634e487b7160e01b600052603260045260246000fd5b6001600160a01b0390921660209283029190910190910152846113d381612fc5565b955050818785815181106113f757634e487b7160e01b600052603260045260246000fd5b60200260200101906001600160a01b031690816001600160a01b031681525050505050808061142590612fc5565b9150506111da565b5061143c600180546001019055565b600061144760015490565b6000818152600560208190526040822060028082018f90556003820184905560048201939093559081018c9055600681018b905560078101805493945090928a9260ff199091169060019084908111156114b157634e487b7160e01b600052602160045260246000fd5b021790555060005b8b81101561168a5760405180608001604052806001151581526020016000151581526020016000151581526020016040518060200160405280600081525081525082600001600088848151811061152057634e487b7160e01b600052603260045260246000fd5b6020908102919091018101516001600160a01b031682528181019290925260409081016000208351815485850151938601511515620100000262ff0000199415156101000261ff00199315159390931661ffff199092169190911791909117929092169190911781556060830151805191926115a49260018501929091019061280f565b50905050600560008481526020019081526020016000206001018682815181106115de57634e487b7160e01b600052603260045260246000fd5b6020908102919091018101518254600181018455600093845291832090910180546001600160a01b0319166001600160a01b0390921691909117905586516006919088908490811061164057634e487b7160e01b600052603260045260246000fd5b6020908102919091018101516001600160a01b031682528181019290925260400160009081208054600181018255908252919020018390558061168281612fc5565b9150506114b9565b50817fefd12ea2719556fe49022d6730cc8fb67bdf095019940d8bea722c0c68f90af7868c8c8c6040516116c19493929190612d08565b60405180910390a260005b8b81101561174c577f1c07d45d45a4f27bca3df4f68a8ff2a2499dabe87328b10ffe9c389dd9bdb8be838c8c8c8a868151811061171957634e487b7160e01b600052603260045260246000fd5b6020026020010151604051611732959493929190612e88565b60405180910390a18061174481612fc5565b9150506116cc565b50909a9950505050505050505050565b6000611767816124ba565b610aed7f7590f0264744cd50915976d360e18170bc29db6f1a196d3b1061f7f19405217083610af1565b600061179c816124ba565b610aed60008051602061302d83398151915283610af1565b6001600160a01b038116600090815260066020908152604080832080548251818502810185019093528083526060949383018282801561181357602002820191906000526020600020905b8154815260200190600101908083116117ff575b505050505090506000806001600160401b0381111561184257634e487b7160e01b600052604160045260246000fd5b60405190808252806020026020018201604052801561186b578160200160208202803683370190505b5090506000805b8351811015611a0657600084828151811061189d57634e487b7160e01b600052603260045260246000fd5b60200260200101519050600060056000838152602001908152602001600020905080600201546118de826004015483600301546124c790919063ffffffff16565b10156119f15760006118f1856001612ef5565b6001600160401b0381111561191657634e487b7160e01b600052604160045260246000fd5b60405190808252806020026020018201604052801561193f578160200160208202803683370190505b50905060005b858110156119b25786818151811061196d57634e487b7160e01b600052603260045260246000fd5b602002602001015182828151811061199557634e487b7160e01b600052603260045260246000fd5b6020908102919091010152806119aa81612fc5565b915050611945565b50828186815181106119d457634e487b7160e01b600052603260045260246000fd5b6020908102919091010152945084846119ec81612fc5565b955050505b505080806119fe90612fc5565b915050611872565b5090949350505050565b6000918252602082815260408084206001600160a01b0393909316845291905290205460ff1690565b6000611a4460015490565b831115611a635760405162461bcd60e51b815260040161065a90612db9565b6000838152600560205260409020600281015460019091015414611ac05760405162461bcd60e51b815260206004820152601460248201527310dbdb5b5a5d1d1959481b9bdd08199bdc9b595960621b604482015260640161065a565b60005b600084815260056020526040902060020154811015611b5057600084815260056020526040902060010180546001600160a01b038516919083908110611b1957634e487b7160e01b600052603260045260246000fd5b6000918252602090912001546001600160a01b03161415611b3e5760019150506105b9565b80611b4881612fc5565b915050611ac3565b5060009392505050565b6000611b65816124ba565b50600280546001600160a01b039384166001600160a01b03199182161790915560038054929093169116179055565b6000611b9f816124ba565b610aed7fb0f3aac3b44b4004b6bf1079361f8b30fa03aa59a548b7dcd16495466c6f0cea83611bfe565b6000611bd4816124ba565b610aed7f8a21e8fdae6c23863f7de5307e2e7162c88dab602a41610addb5f1505d25939883610af1565b600082815260208190526040902060010154611c19816124ba565b610b16838361255e565b611c676040518060e0016040528060001515815260200160608152602001606081526020016060815260200160008152602001600015158152602001606081525090565b600154821115611c895760405162461bcd60e51b815260040161065a90612db9565b6000828152600560205260408120600281015460048201546003830154929392611cb2916124c7565b149050600082600101805480602002602001604051908101604052809291908181526020018280548015611d0f57602002820191906000526020600020905b81546001600160a01b03168152600190910190602001808311611cf1575b50505050509050600083600201546001600160401b03811115611d4257634e487b7160e01b600052604160045260246000fd5b604051908082528060200260200182016040528015611d6b578160200160208202803683370190505b509050600084600201546001600160401b03811115611d9a57634e487b7160e01b600052604160045260246000fd5b604051908082528060200260200182016040528015611dcd57816020015b6060815260200190600190039081611db85790505b50604080516020810190915260008082529192509080805b8860020154811015611fae576000878281518110611e1357634e487b7160e01b600052603260045260246000fd5b6020026020010151905060008a6000016000836001600160a01b03166001600160a01b0316815260200190815260200160002090508060000160029054906101000a900460ff16888481518110611e7a57634e487b7160e01b600052603260045260246000fd5b91151560209283029190910190910152600181018054611e9990612f8a565b80601f0160208091040260200160405190810160405280929190818152602001828054611ec590612f8a565b8015611f125780601f10611ee757610100808354040283529160200191611f12565b820191906000526020600020905b815481529060010190602001808311611ef557829003601f168201915b5050505050878481518110611f3757634e487b7160e01b600052603260045260246000fd5b6020908102919091010152805462010000900460ff1615611f645784611f5c81612fc5565b955050611f72565b83611f6e81612fc5565b9450505b8581600101604051602001611f88929190612bbf565b604051602081830303815290604052955050508080611fa690612fc5565b915050611de5565b506040805160e0810182529715158852602088019690965294860193909352606085019190915260029094015460808401521160a082015260c081019190915292915050565b6001600160a01b038116600090815260066020908152604080832080548251818502810185019093528083526060949383018282801561205357602002820191906000526020600020905b81548152602001906001019080831161203f575b505050505090506000806001600160401b0381111561208257634e487b7160e01b600052604160045260246000fd5b6040519080825280602002602001820160405280156120ab578160200160208202803683370190505b5090506000805b8351811015611a065760008482815181106120dd57634e487b7160e01b600052603260045260246000fd5b602002602001015190506000600560008381526020019081526020016000209050806002015461211e826004015483600301546124c790919063ffffffff16565b1415612231576000612131856001612ef5565b6001600160401b0381111561215657634e487b7160e01b600052604160045260246000fd5b60405190808252806020026020018201604052801561217f578160200160208202803683370190505b50905060005b858110156121f2578681815181106121ad57634e487b7160e01b600052603260045260246000fd5b60200260200101518282815181106121d557634e487b7160e01b600052603260045260246000fd5b6020908102919091010152806121ea81612fc5565b915050612185565b508281868151811061221457634e487b7160e01b600052603260045260246000fd5b60209081029190910101529450848461222c81612fc5565b955050505b5050808061223e90612fc5565b9150506120b2565b606060008061225460015490565b6001600160401b0381111561227957634e487b7160e01b600052604160045260246000fd5b6040519080825280602002602001820160405280156122a2578160200160208202803683370190505b50905060015b600154811161232a5760008181526005602052604090206002810154600482015460038301546122d7916124c7565b101561231757818385815181106122fe57634e487b7160e01b600052603260045260246000fd5b60209081029190910101528361231381612fc5565b9450505b508061232281612fc5565b9150506122a8565b506000826001600160401b0381111561235357634e487b7160e01b600052604160045260246000fd5b60405190808252806020026020018201604052801561237c578160200160208202803683370190505b50905060005b838110156110ac578281815181106123aa57634e487b7160e01b600052603260045260246000fd5b60200260200101518282815181106123d257634e487b7160e01b600052603260045260246000fd5b6020908102919091010152806123e781612fc5565b915050612382565b60006123fa816124ba565b610aed7f8a21e8fdae6c23863f7de5307e2e7162c88dab602a41610addb5f1505d25939883611bfe565b600061242f816124ba565b610aed7fb0f3aac3b44b4004b6bf1079361f8b30fa03aa59a548b7dcd16495466c6f0cea83610af1565b6060600480548060200260200160405190810160405280929190818152602001828054801561061657602002820191906000526020600020905b81546001600160a01b03168152600190910190602001808311612493575050505050905090565b6124c481336125c3565b50565b60006124d38284612ef5565b9392505050565b6124e48282611a10565b610aed576000828152602081815260408083206001600160a01b03851684529091529020805460ff1916600117905561251a3390565b6001600160a01b0316816001600160a01b0316837f2f8788117e7eff1d82e926ec794901d17c78024a50270940304540a733656f0d60405160405180910390a45050565b6125688282611a10565b15610aed576000828152602081815260408083206001600160a01b0385168085529252808320805460ff1916905551339285917ff6391f5c32d9c69d2a47ea670b442974b53935d1edc7fd64eb21e047a839171b9190a45050565b6125cd8282611a10565b610aed576125da8161261c565b6125e583602061262e565b6040516020016125f6929190612c80565b60408051601f198184030181529082905262461bcd60e51b825261065a91600401612da6565b60606105b96001600160a01b03831660145b6060600061263d836002612f0d565b612648906002612ef5565b6001600160401b0381111561266d57634e487b7160e01b600052604160045260246000fd5b6040519080825280601f01601f191660200182016040528015612697576020820181803683370190505b509050600360fc1b816000815181106126c057634e487b7160e01b600052603260045260246000fd5b60200101906001600160f81b031916908160001a905350600f60fb1b816001815181106126fd57634e487b7160e01b600052603260045260246000fd5b60200101906001600160f81b031916908160001a9053506000612721846002612f0d565b61272c906001612ef5565b90505b60018111156127c0576f181899199a1a9b1b9c1cb0b131b232b360811b85600f166010811061276e57634e487b7160e01b600052603260045260246000fd5b1a60f81b82828151811061279257634e487b7160e01b600052603260045260246000fd5b60200101906001600160f81b031916908160001a90535060049490941c936127b981612f73565b905061272f565b5083156124d35760405162461bcd60e51b815260206004820181905260248201527f537472696e67733a20686578206c656e67746820696e73756666696369656e74604482015260640161065a565b82805461281b90612f8a565b90600052602060002090601f01602090048101928261283d5760008555612883565b82601f1061285657805160ff1916838001178555612883565b82800160010185558215612883579182015b82811115612883578251825591602001919060010190612868565b5061288f929150612893565b5090565b5b8082111561288f5760008155600101612894565b80356001600160a01b03811681146128bf57600080fd5b919050565b6000602082840312156128d5578081fd5b6124d3826128a8565b600080604083850312156128f0578081fd5b6128f9836128a8565b9150612907602084016128a8565b90509250929050565b60008060408385031215612922578182fd5b61292b836128a8565b946020939093013593505050565b60006020828403121561294a578081fd5b5035919050565b60008060408385031215612963578182fd5b82359150612907602084016128a8565b600060208284031215612984578081fd5b81356001600160e01b0319811681146124d3578182fd5b6000806000606084860312156129af578081fd5b83359250602084013580151581146129c5578182fd5b915060408401356001600160401b03808211156129e0578283fd5b818601915086601f8301126129f3578283fd5b813581811115612a0557612a05613016565b604051601f8201601f19908116603f01168101908382118183101715612a2d57612a2d613016565b81604052828152896020848701011115612a45578586fd5b82602086016020830137856020848301015280955050505050509250925092565b60008060008060808587031215612a7b578081fd5b843593506020850135925060408501359150606085013560038110612a9e578182fd5b939692955090935050565b6000815180845260208085019450808401835b83811015612ae15781516001600160a01b031687529582019590820190600101612abc565b509495945050505050565b6000815180845260208085019450808401835b83811015612ae1578151151587529582019590820190600101612aff565b600081518084526020808501808196508360051b81019150828601855b85811015612b64578284038952612b52848351612b93565b98850198935090840190600101612b3a565b5091979650505050505050565b60038110612b8f57634e487b7160e01b600052602160045260246000fd5b9052565b60008151808452612bab816020860160208601612f43565b601f01601f19169290920160200192915050565b600083516020612bd28285838901612f43565b8454918401918390600181811c9080831680612bef57607f831692505b858310811415612c0d57634e487b7160e01b88526022600452602488fd5b808015612c215760018114612c3257612c5e565b60ff19851688528388019550612c5e565b60008b815260209020895b85811015612c565781548a820152908401908801612c3d565b505083880195505b5050505050612c75816101d960f51b815260020190565b979650505050505050565b7f416363657373436f6e74726f6c3a206163636f756e7420000000000000000000815260008351612cb8816017850160208801612f43565b7001034b99036b4b9b9b4b733903937b6329607d1b6017918401918201528351612ce9816028840160208801612f43565b01602801949350505050565b6020815260006124d36020830184612aa9565b608081526000612d1b6080830187612aa9565b9050846020830152836040830152612d366060830184612b71565b95945050505050565b6020808252825182820181905260009190848201906040850190845b81811015612d7757835183529284019291840191600101612d5b565b50909695505050505050565b8215158152604060208201526000612d9e6040830184612b93565b949350505050565b6020815260006124d36020830184612b93565b602080825260149082015273125b9d985b1a590818dbdb5b5a5d1d195948125160621b604082015260600190565b602081528151151560208201526000602083015160e06040840152612e10610100840182612aa9565b90506040840151601f1980858403016060860152612e2e8383612aec565b92506060860151915080858403016080860152612e4b8383612b1d565b9250608086015160a086015260a08601519150612e6c60c086018315159052565b60c08601519150808584030160e086015250612d368282612b93565b858152602081018590526040810184905260a08101612eaa6060830185612b71565b6001600160a01b039290921660809190910152949350505050565b600060c082019050878252866020830152856040830152846060830152836080830152612c7560a0830184612b71565b60008219821115612f0857612f08613000565b500190565b6000816000190483118215151615612f2757612f27613000565b500290565b600082821015612f3e57612f3e613000565b500390565b60005b83811015612f5e578181015183820152602001612f46565b83811115612f6d576000848401525b50505050565b600081612f8257612f82613000565b506000190190565b600181811c90821680612f9e57607f821691505b60208210811415612fbf57634e487b7160e01b600052602260045260246000fd5b50919050565b6000600019821415612fd957612fd9613000565b5060010190565b600082612ffb57634e487b7160e01b81526012600452602481fd5b500690565b634e487b7160e01b600052601160045260246000fd5b634e487b7160e01b600052604160045260246000fdfe21702c8af46127c7fa207f89d0b0a8441bb32959a0ac7df790e9ab1a25c98926a2646970667358221220e5f3ea98f058bd390f89f52e78f03740554b7a9b020686d470b90f1fc8dd9bf264736f6c63430008040033",
  "linkReferences": {},
  "deployedLinkReferences": {}
}