{
  "_format": "hh-sol-artifact-1",
  "contractName": "Validator",
  "sourceName": "contracts/Validator.sol",
  "abi": [
    {
      "inputs": [
        {
          "internalType": "address",
          "name": "_committeeAddress",
          "type": "address"
        }
      ],
      "stateMutability": "nonpayable",
      "type": "constructor"
    },
    {
      "anonymous": false,
      "inputs": [
        {
          "indexed": false,
          "internalType": "address",
          "name": "applicant",
          "type": "address"
        },
        {
          "indexed": false,
          "internalType": "bytes32",
          "name": "_ipfsHash",
          "type": "bytes32"
        },
        {
          "indexed": false,
          "internalType": "uint256",
          "name": "committeeId",
          "type": "uint256"
        },
        {
          "indexed": false,
          "internalType": "enum Validator.ValidationStatus",
          "name": "status",
          "type": "uint8"
        }
      ],
      "name": "AppliedAsValidator",
      "type": "event"
    },
    {
      "anonymous": false,
      "inputs": [
        {
          "indexed": true,
          "internalType": "bytes32",
          "name": "role",
          "type": "bytes32"
        },
        {
          "indexed": true,
          "internalType": "bytes32",
          "name": "previousAdminRole",
          "type": "bytes32"
        },
        {
          "indexed": true,
          "internalType": "bytes32",
          "name": "newAdminRole",
          "type": "bytes32"
        }
      ],
      "name": "RoleAdminChanged",
      "type": "event"
    },
    {
      "anonymous": false,
      "inputs": [
        {
          "indexed": true,
          "internalType": "bytes32",
          "name": "role",
          "type": "bytes32"
        },
        {
          "indexed": true,
          "internalType": "address",
          "name": "account",
          "type": "address"
        },
        {
          "indexed": true,
          "internalType": "address",
          "name": "sender",
          "type": "address"
        }
      ],
      "name": "RoleGranted",
      "type": "event"
    },
    {
      "anonymous": false,
      "inputs": [
        {
          "indexed": true,
          "internalType": "bytes32",
          "name": "role",
          "type": "bytes32"
        },
        {
          "indexed": true,
          "internalType": "address",
          "name": "account",
          "type": "address"
        },
        {
          "indexed": true,
          "internalType": "address",
          "name": "sender",
          "type": "address"
        }
      ],
      "name": "RoleRevoked",
      "type": "event"
    },
    {
      "anonymous": false,
      "inputs": [
        {
          "indexed": false,
          "internalType": "address",
          "name": "applicant",
          "type": "address"
        },
        {
          "indexed": false,
          "internalType": "enum Validator.ValidationStatus",
          "name": "status",
          "type": "uint8"
        }
      ],
      "name": "ValidatorRequestResponded",
      "type": "event"
    },
    {
      "inputs": [],
      "name": "DEFAULT_ADMIN_ROLE",
      "outputs": [
        {
          "internalType": "bytes32",
          "name": "",
          "type": "bytes32"
        }
      ],
      "stateMutability": "view",
      "type": "function"
    },
    {
      "inputs": [],
      "name": "VALIDATOR_CONFIRMATION_COMMITTEE_SIZE",
      "outputs": [
        {
          "internalType": "uint256",
          "name": "",
          "type": "uint256"
        }
      ],
      "stateMutability": "view",
      "type": "function"
    },
    {
      "inputs": [
        {
          "internalType": "bytes32",
          "name": "_ipfsHash",
          "type": "bytes32"
        }
      ],
      "name": "applyForValidator",
      "outputs": [],
      "stateMutability": "nonpayable",
      "type": "function"
    },
    {
      "inputs": [
        {
          "internalType": "bytes32",
          "name": "role",
          "type": "bytes32"
        }
      ],
      "name": "getRoleAdmin",
      "outputs": [
        {
          "internalType": "bytes32",
          "name": "",
          "type": "bytes32"
        }
      ],
      "stateMutability": "view",
      "type": "function"
    },
    {
      "inputs": [
        {
          "internalType": "address",
          "name": "validator",
          "type": "address"
        }
      ],
      "name": "getValidatorProfile",
      "outputs": [
        {
          "components": [
            {
              "internalType": "address",
              "name": "applicant",
              "type": "address"
            },
            {
              "internalType": "uint256",
              "name": "stakingAmount",
              "type": "uint256"
            },
            {
              "internalType": "uint256",
              "name": "reputationScore",
              "type": "uint256"
            },
            {
              "internalType": "bytes32",
              "name": "ipfsHash",
              "type": "bytes32"
            }
          ],
          "internalType": "struct Validator.ValidatorProfile",
          "name": "",
          "type": "tuple"
        }
      ],
      "stateMutability": "view",
      "type": "function"
    },
    {
      "inputs": [
        {
          "internalType": "bytes32",
          "name": "role",
          "type": "bytes32"
        },
        {
          "internalType": "address",
          "name": "account",
          "type": "address"
        }
      ],
      "name": "grantRole",
      "outputs": [],
      "stateMutability": "nonpayable",
      "type": "function"
    },
    {
      "inputs": [
        {
          "internalType": "bytes32",
          "name": "role",
          "type": "bytes32"
        },
        {
          "internalType": "address",
          "name": "account",
          "type": "address"
        }
      ],
      "name": "hasRole",
      "outputs": [
        {
          "internalType": "bool",
          "name": "",
          "type": "bool"
        }
      ],
      "stateMutability": "view",
      "type": "function"
    },
    {
      "inputs": [
        {
          "internalType": "bytes32",
          "name": "role",
          "type": "bytes32"
        },
        {
          "internalType": "address",
          "name": "account",
          "type": "address"
        }
      ],
      "name": "renounceRole",
      "outputs": [],
      "stateMutability": "nonpayable",
      "type": "function"
    },
    {
      "inputs": [
        {
          "internalType": "bytes32",
          "name": "role",
          "type": "bytes32"
        },
        {
          "internalType": "address",
          "name": "account",
          "type": "address"
        }
      ],
      "name": "revokeRole",
      "outputs": [],
      "stateMutability": "nonpayable",
      "type": "function"
    },
    {
      "inputs": [
        {
          "internalType": "bytes4",
          "name": "interfaceId",
          "type": "bytes4"
        }
      ],
      "name": "supportsInterface",
      "outputs": [
        {
          "internalType": "bool",
          "name": "",
          "type": "bool"
        }
      ],
      "stateMutability": "view",
      "type": "function"
    },
    {
      "inputs": [
        {
          "internalType": "uint256",
          "name": "committeeTypeId",
          "type": "uint256"
        },
        {
          "internalType": "bool",
          "name": "finalDecision",
          "type": "bool"
        }
      ],
      "name": "updateValidatorProposalDecision",
      "outputs": [],
      "stateMutability": "nonpayable",
      "type": "function"
    },
    {
      "inputs": [
        {
          "internalType": "address",
          "name": "",
          "type": "address"
        }
      ],
      "name": "validatorProfiles",
      "outputs": [
        {
          "internalType": "address",
          "name": "applicant",
          "type": "address"
        },
        {
          "internalType": "uint256",
          "name": "stakingAmount",
          "type": "uint256"
        },
        {
          "internalType": "uint256",
          "name": "reputationScore",
          "type": "uint256"
        },
        {
          "internalType": "bytes32",
          "name": "ipfsHash",
          "type": "bytes32"
        }
      ],
      "stateMutability": "view",
      "type": "function"
    },
    {
      "inputs": [
        {
          "internalType": "uint256",
          "name": "",
          "type": "uint256"
        }
      ],
      "name": "validatorRequests",
      "outputs": [
        {
          "internalType": "address",
          "name": "applicant",
          "type": "address"
        },
        {
          "internalType": "uint256",
          "name": "stakingAmount",
          "type": "uint256"
        },
        {
          "internalType": "uint256",
          "name": "reputationScore",
          "type": "uint256"
        },
        {
          "internalType": "bytes32",
          "name": "ipfsHash",
          "type": "bytes32"
        },
        {
          "internalType": "enum Validator.ValidationStatus",
          "name": "validationStatus",
          "type": "uint8"
        }
      ],
      "stateMutability": "view",
      "type": "function"
    }
  ],
  "bytecode": "0x608060405234801561001057600080fd5b5060405161107e38038061107e83398101604081905261002f91610054565b600280546001600160a01b0319166001600160a01b0392909216919091179055610082565b600060208284031215610065578081fd5b81516001600160a01b038116811461007b578182fd5b9392505050565b610fed806100916000396000f3fe608060405234801561001057600080fd5b50600436106100cf5760003560e01c806350d2f8101161008c578063ac4a0d9211610066578063ac4a0d92146101f6578063d547741f14610209578063d7e6243f1461021c578063dcd5c66e1461028757600080fd5b806350d2f810146101b757806391d14854146101db578063a217fddf146101ee57600080fd5b806301ffc9a7146100d45780630f29ac85146100fc57806310516d521461014b578063248a9ca3146101605780632f2ff15d1461019157806336568abe146101a4575b600080fd5b6100e76100e2366004610d32565b61028f565b60405190151581526020015b60405180910390f35b61010f61010a366004610cd5565b6102c6565b6040516100f3919081516001600160a01b0316815260208083015190820152604080830151908201526060918201519181019190915260800190565b61015e610159366004610cef565b6103a5565b005b61018361016e366004610cef565b60009081526020819052604090206001015490565b6040519081526020016100f3565b61015e61019f366004610d07565b6105c6565b61015e6101b2366004610d07565b6105f0565b6101ca6101c5366004610cef565b61066e565b6040516100f3959493929190610e76565b6100e76101e9366004610d07565b6106bc565b610183600081565b61015e610204366004610d72565b6106e5565b61015e610217366004610d07565b61094a565b61025d61022a366004610cd5565b600360208190526000918252604090912080546001820154600283015492909301546001600160a01b0390911692919084565b604080516001600160a01b03909516855260208501939093529183015260608201526080016100f3565b610183600381565b60006001600160e01b03198216637965db0b60e01b14806102c057506301ffc9a760e01b6001600160e01b03198316145b92915050565b6040805160808101825260008082526020820181905291810182905260608101919091526001600160a01b03828116600090815260036020526040902054166103565760405162461bcd60e51b815260206004820152601860248201527f56616c696461746f7220646f6573206e6f74206578697374000000000000000060448201526064015b60405180910390fd5b506001600160a01b039081166000908152600360208181526040928390208351608081018552815490951685526001810154918501919091526002810154928401929092520154606082015290565b6040805160a081018252338152600060208201818152928201818152606083018581526080840183815260018054808201825594819052855160059095027fb10e2d527612073b26eecdfd717e6a320cf44b4afac2b0732d9fcbe2b7fa0cf6810180546001600160a01b039097166001600160a01b031990971696909617865596517fb10e2d527612073b26eecdfd717e6a320cf44b4afac2b0732d9fcbe2b7fa0cf788015592517fb10e2d527612073b26eecdfd717e6a320cf44b4afac2b0732d9fcbe2b7fa0cf887015590517fb10e2d527612073b26eecdfd717e6a320cf44b4afac2b0732d9fcbe2b7fa0cf9860155517fb10e2d527612073b26eecdfd717e6a320cf44b4afac2b0732d9fcbe2b7fa0cfa909401805493948594909260ff19909116908360028111156104eb57634e487b7160e01b600052602160045260246000fd5b021790555050600280546001546040516387a0568960e01b8152600094506001600160a01b03909216926387a056899261052f926003929091879190600401610ee7565b602060405180830381600087803b15801561054957600080fd5b505af115801561055d573d6000803e3d6000fd5b505050506040513d601f19601f820116820180604052508101906105819190610d5a565b90507f5fef7fddd76a2f61f0a19eb7c91afb4eecb5af165d254e3ba88eec460619f03733848360006040516105b99493929190610e1a565b60405180910390a1505050565b6000828152602081905260409020600101546105e18161096f565b6105eb838361097c565b505050565b6001600160a01b03811633146106605760405162461bcd60e51b815260206004820152602f60248201527f416363657373436f6e74726f6c3a2063616e206f6e6c792072656e6f756e636560448201526e103937b632b9903337b91039b2b63360891b606482015260840161034d565b61066a8282610a00565b5050565b6001818154811061067e57600080fd5b6000918252602090912060059091020180546001820154600283015460038401546004909401546001600160a01b0390931694509092909160ff1685565b6000918252602082815260408084206001600160a01b0393909316845291905290205460ff1690565b6000811561087e5760006001848154811061071057634e487b7160e01b600052603260045260246000fd5b60009182526020918290206040805160a081018252600590930290910180546001600160a01b0316835260018101549383019390935260028084015491830191909152600383015460608301526004830154919291608084019160ff9091169081111561078d57634e487b7160e01b600052602160045260246000fd5b60028111156107ac57634e487b7160e01b600052602160045260246000fd5b81525050905060018085815481106107d457634e487b7160e01b600052603260045260246000fd5b60009182526020909120600460059092020101805460ff1916600183600281111561080f57634e487b7160e01b600052602160045260246000fd5b021790555080516001600160a01b03908116600081815260036020818152604080842080546001600160a01b03191690951790945585015185518516835283832060010155828501518551851683528383206002015560608501518551909416825291902001555190506108e2565b6002600184815481106108a157634e487b7160e01b600052603260045260246000fd5b60009182526020909120600460059092020101805460ff191660018360028111156108dc57634e487b7160e01b600052602160045260246000fd5b02179055505b7ff5d2490588c27479150b88d531f5da1583fe51587baee4dc9b1b8abeab863a14816001858154811061092557634e487b7160e01b600052603260045260246000fd5b60009182526020909120600460059092020101546040516105b9929160ff1690610e50565b6000828152602081905260409020600101546109658161096f565b6105eb8383610a00565b6109798133610a65565b50565b61098682826106bc565b61066a576000828152602081815260408083206001600160a01b03851684529091529020805460ff191660011790556109bc3390565b6001600160a01b0316816001600160a01b0316837f2f8788117e7eff1d82e926ec794901d17c78024a50270940304540a733656f0d60405160405180910390a45050565b610a0a82826106bc565b1561066a576000828152602081815260408083206001600160a01b0385168085529252808320805460ff1916905551339285917ff6391f5c32d9c69d2a47ea670b442974b53935d1edc7fd64eb21e047a839171b9190a45050565b610a6f82826106bc565b61066a57610a7c81610abe565b610a87836020610ad0565b604051602001610a98929190610da5565b60408051601f198184030181529082905262461bcd60e51b825261034d91600401610eb4565b60606102c06001600160a01b03831660145b60606000610adf836002610f1d565b610aea906002610f05565b67ffffffffffffffff811115610b1057634e487b7160e01b600052604160045260246000fd5b6040519080825280601f01601f191660200182016040528015610b3a576020820181803683370190505b509050600360fc1b81600081518110610b6357634e487b7160e01b600052603260045260246000fd5b60200101906001600160f81b031916908160001a905350600f60fb1b81600181518110610ba057634e487b7160e01b600052603260045260246000fd5b60200101906001600160f81b031916908160001a9053506000610bc4846002610f1d565b610bcf906001610f05565b90505b6001811115610c63576f181899199a1a9b1b9c1cb0b131b232b360811b85600f1660108110610c1157634e487b7160e01b600052603260045260246000fd5b1a60f81b828281518110610c3557634e487b7160e01b600052603260045260246000fd5b60200101906001600160f81b031916908160001a90535060049490941c93610c5c81610f6c565b9050610bd2565b508315610cb25760405162461bcd60e51b815260206004820181905260248201527f537472696e67733a20686578206c656e67746820696e73756666696369656e74604482015260640161034d565b9392505050565b80356001600160a01b0381168114610cd057600080fd5b919050565b600060208284031215610ce6578081fd5b610cb282610cb9565b600060208284031215610d00578081fd5b5035919050565b60008060408385031215610d19578081fd5b82359150610d2960208401610cb9565b90509250929050565b600060208284031215610d43578081fd5b81356001600160e01b031981168114610cb2578182fd5b600060208284031215610d6b578081fd5b5051919050565b60008060408385031215610d84578182fd5b8235915060208301358015158114610d9a578182fd5b809150509250929050565b7f416363657373436f6e74726f6c3a206163636f756e7420000000000000000000815260008351610ddd816017850160208801610f3c565b7001034b99036b4b9b9b4b733903937b6329607d1b6017918401918201528351610e0e816028840160208801610f3c565b01602801949350505050565b6001600160a01b0385168152602081018490526040810183905260808101610e4183610f99565b82606083015295945050505050565b6001600160a01b038316815260408101610e6983610f99565b8260208301529392505050565b6001600160a01b038616815260208101859052604081018490526060810183905260a08101610ea483610f99565b8260808301529695505050505050565b6020815260008251806020840152610ed3816040850160208701610f3c565b601f01601f19169190910160400192915050565b848152602081018490526040810183905260808101610e4183610f99565b60008219821115610f1857610f18610f83565b500190565b6000816000190483118215151615610f3757610f37610f83565b500290565b60005b83811015610f57578181015183820152602001610f3f565b83811115610f66576000848401525b50505050565b600081610f7b57610f7b610f83565b506000190190565b634e487b7160e01b600052601160045260246000fd5b6003811061097957634e487b7160e01b600052602160045260246000fdfea2646970667358221220e215f575a8c704061d2576ce3b3b69301d382813d8f76e1ab91ddfa833eb663764736f6c63430008040033",
  "linkReferences": {},
  "deployedLinkReferences": {}
}